:020000040000FA
:0600000002011D020F6F5A
:03002B00020DFFC4
:03003300020DE1DA
:03005300020FE2B7
:03006B00020DB8CB
:10008300020E23E5C754F84401F5C77901220000A5
:100093000080FB120086B90003020107E4791B7894
:1000A30002B800028004F709D8FCE4791D7802B88D
:1000B30000028004F709D8FCE4900281780B7903ED
:1000C3008002F0A3D8FCD9FA781A90014D7A01BACC
:1000D30000028007E493A3F608DAF990048BAA825E
:1000E300AB8390014E788279018015E493A3AC82AF
:1000F300AD838A828B83F0A3AA82AB838C828D83A8
:10010300D8E9D9E7758234758372740012012F75AB
:100113008291758300740012012F75D00075813FA1
:10012300751881751902759F00020096C09FF59F8F
:10013300E473D09F22D083D082C09FE493C0E07445
:100143000193C0E0740293F59F2201FFFFFF00308B
:10015300313233343536373839414243444546002A
:100163006F047B04FF0000B400002800280028303F
:1001730075A000A000A000A00000080008E001F0A6
:10018300001000100010001000100010005000506C
:1001930000500010001000D0070000000000000F06
:1001A3000001000500307507001000010081FF0009
:1001B30000FFBF05BF05BF05BF05BF05BF05BF05E1
:1001C300BF05BF05BF05BF05BF05BF051201381E2B
:1001D3004600120138684600120138BE460012017B
:1001E30038DF46001201383347001201385C4700FC
:1001F300120138664700120138D4470012013864EF
:100203004800120138BF4800120138ED48001201BE
:1002130038754900120138B44900120138E9490020
:10022300120138FB49001201381A4A00120138231F
:100233004A001201382B6D00120138EF61001201E0
:1002430038256200120138596200120138A6630092
:100253001201383371001201384971001201385309
:1002630071001201389D7100120138D5720012011C
:1002730038EA4A00120138FD4A00120138BE4B0029
:10028300120138FD4B001201381A4C001201385389
:100293004C00120138A04C00120138D24C0012015C
:1002A30038DB4E00120138474F00120138046F004B
:1002B3001201382E6F00120138466F001201388880
:1002C3006F00120138487300120138D16F00120118
:1002D30038E26F001201388C7200120138CB7200C1
:1002E3001201386D7300120138226E001201383288
:1002F3006E001201384A6E00120138FE6E001201C0
:1003030038296C00120138AE6C00120138126D00EE
:10031300120138B56500120138DE65001201384458
:100323006600120138646600120138B566001201D6
:10033300381067001201384A67001201384D670010
:10034300120138C26800120138D768001201384B15
:1003530069001201386569001201387869001201D9
:1003630038866900120138A06900120138C069009B
:10037300120138995300120138B053001201382A80
:1003830054001201380E5500120138E556001201CF
:10039300384A5700120138A15700120138F87F007C
:1003A300120138BB5D001201384B5F00120138ACFB
:1003B3005F00120138F25F00120138576700120123
:1003C30038946700120138C36700120138046800CB
:1003D3001201381368001201382268001201382311
:1003E3006B001201384D6B001201385036001201B8
:1003F300381C3700120138643700120138C2370045
:100403001201381638001201387438001201380A04
:100413003900120138943A00120138323B001201BC
:1004230038993B00120138544F00120138DE4F0057
:100433001201386D5000120138D0500012013807F4
:1004430051001201385F51001201380A52001201A3
:10045300388C52001201387853001201388C140082
:10046300120138671500120138951500120138156D
:100473001600120138531600120138BB1600120180
:10048300384C1700120138171800120138261B00C8
:10049300120138921C00120138B51C0012013823D6
:1004A3005B001201384B5B00120138795B001201CB
:1004B30038B65B00120138FF5B00120138515C0053
:1004C3001201387F5C00120138265D001201388268
:1004D30070001201389A7000120138F55F001201A2
:1004E30038006000120138126000120138F0600019
:1004F300120138F56000120138DC6100120138E89E
:1005030063001201381864001201385064001201AC
:10051300388A6400120138F564001201383E650020
:100523001201386865001201388D6500120138F335
:100533004000120138264100120138044200120122
:1005430038294200120138A643001201383524002D
:10055300120138102600120138B526001201383A6C
:100563002700120138932700120138952800120141
:1005730038ED1D00120138841E00120138B11E002F
:10058300120138F71E001201381F2000120138B67D
:1005930021001201382B22001201387C22001201A3
:1005A30038E723001201380B2400120138F56900E3
:1005B300120138016A00120138E36A001201387E21
:1005C3007300120138B63B00120138623C0012017D
:1005D30038303D001201385A3D00120138A83F005F
:1005E300120138712A00120138962A00120138E3E9
:1005F3002C00120138622E00120138A32F001201C1
:1006030038143000120138513000120138743000B0
:100613001201388A3000120138B557001201384BE5
:100623005800120138615800120138DB58001201DA
:10063300383159001201386F5900120138CC590072
:10064300120138495A00120138525A001201385E19
:100653005A001201387E5A00120138945A001201CE
:1006630038F35A00120138933000120138A03000D9
:10067300120138BA3000120138F930001201385E25
:1006830031001201387331001201388A310012012E
:1006930038983100120138A73100120138BC3100FB
:1006A300120138D13100120138DC3100120138EB6C
:1006B30031001201380E3200120138B73200120134
:1006C30038CC3200120138E632001201380133000F
:1006D3001201381E3300120138293300120138E5A4
:1006E3003300120138D13400120138F634001201FC
:1006F3003800350012013814350012013833350043
:10070300120138943500120138A03500120138D394
:100713003500120138C97100120138F57100120158
:10072300382272001201381B7300E066701008A3B0
:10073300E066700A08A3E066700408A3E06622C3BB
:10074300E7960809E7960809E7960809E79622C39A
:10075300E09608A3E09608A3E09608A3E09622C0DB
:1007630008C3E096F50808A3E096420808A3E096BC
:10077300420808A3E09645087001D3D00822080870
:1007830008EAC0E0EBC0E086F0E7A4FA180986F0B7
:10079300E7A42AFA180986F0E7A42AFA180986F0CA
:1007A300E7A42AFA1986F0E7A4FBE5F02AFA190868
:1007B30086F0E7A42BFBE5F03AFA190886F0E7A4E4
:1007C3002BFBE5F03AFA18180986F0E7A4C5F02BDD
:1007D300FBE43AFA1908E7C5F0C6A426F6E5F03BB0
:1007E300FBE43AFA1886F0E7A4F6E5F00826F6E407
:1007F3003B08F6E43A08F6D0E0FBD0E0FA22E4CF77
:10080300C0E0E4CEC0E0E4CDC0E0E4CCC0E075F0ED
:1008130020C3E633F608E633F608E633F608E63394
:10082300F6181818EC33FCED33FDEE33FEEF33FF0F
:10083300C3EC9709ED9709EE9709EF97191919403A
:100843000FFFEC97FC09ED97FD09EE97FE191906CA
:10085300D5F0BEECF709EDF709EEF709EFF7191933
:1008630019D0E0FCD0E0FDD0E0FED0E0FF2260161E
:10087300080808C6C313C618C613C618C613C61875
:10088300C613C6D5E0EA22700908080822601618C4
:100893001818C6C333C608C633C608C633C608C647
:1008A30033C6D5E0EA22E627F60809E637F6080953
:1008B300E637F60809E637F622E026F608A3E0361F
:1008C300F608A3E036F608A3E036F622E026F008A1
:1008D300A3E036F008A3E036F008A3E036F022C325
:1008E300E697F60809E697F60809E697F60809E693
:1008F30097F622C3E096F008A3E096F008A3E096EB
:10090300F008A3E096F022E056F608A3E056F608B6
:10091300A3E056F608A3E056F622E0F608A3E0F6B5
:1009230008A3E0F608A3E0F622E6F008A3E6F00841
:10093300A3E6F008A3E6F022E0FAA3E0FBA3E0FCC1
:10094300A3E0FD22EAF0A3EBF0A3ECF0A3EDF02289
:10095300CAC0E0E6F0A308DAFAD0E0FA22CAC0E09F
:10096300E0A3C582CCC582C583CDC583F0A3C58270
:10097300CCC582C583CDC583DAE6D0E0CA22B900EF
:1009830010BB0008E88AF084F8AAF022E4FBC8FA56
:1009930022EB70227B10C833C8C933C9335007C355
:1009A3009AC3DBF280069A50012ADBEAC833F4C803
:1009B300C933F4C9FA2275F008E4C833C8C933C986
:1009C30033C99AC99B5004C92AC93BD5F0ECFBC86B
:1009D30033F4C8E4C9FA22600D08C6A2E713C618A7
:1009E300C613C6D5E0F322600C08C6C313C618C6E7
:1009F30013C6D5E0F422700422600D18C6C333C6B3
:100A030008C633C6D5E0F41822251810AF08F51828
:100A1300400215198008F51840021519D2AF22C0FB
:100A2300D0251810AF08F518500205198008F518DD
:100A330050020519D2AFD0D0222518F58210AF0885
:100A4300F518400215198008F51840021519D2AFA0
:100A5300851983222518F582E43519F58322E47379
:100A63002518C582C0E0E51934FFC583C0E0E51849
:100A7300C3958224F810AF088583198582188008EE
:100A8300858319858218D2AFCEF0A3E520F0A37831
:100A930008E608F0A3DEFAEFF0A3E58124FAF8E60E
:100AA30008F0A3E608F0A3E608F0A30808E608F0B8
:100AB300A3E608F0A315811581D0E0FED0E0F81578
:100AC3008115811581E8C0E0EEC0E0222518C582BA
:100AD300C0E0E51934FFC583C0E0E518C39582245F
:100AE300F910AF08858319858218800885831985D5
:100AF3008218D2AFCEF0A3E520F0A37808E608F081
:100B0300A3DEFAEFF0A3E58124FBF8E608F0A3E601
:100B130008F0A30808E608F0A3E608F0A31581157A
:100B230081D0E0FED0E0F815811581E8C0E0EEC089
:100B3300E022851983851882E0A3FEE0A3F52078DF
:100B430008E0A3F608DFFAE0A3FFE0A3C0E0E0A318
:100B5300C0E0E0A3C0E0E0A3C0E0E0A3C0E010AFCA
:100B6300088582188583198008858218858319D2A0
:100B7300AFD083D082020135851983851882E0A323
:100B8300FEE0A3F5207808E0A3F608DFFAE0A3FF70
:100B9300E0A3C0E0E0A3C0E0E0A3C0E0E0A3C0E0C6
:100BA30010AF08858218858319800885821885838C
:100BB30019D2AFD083D08222C0D02518C582C0E01D
:100BC300E51934FFC583C0E0E518C3958224F3100B
:100BD300AF08858319858218800885831985821853
:100BE300D2AFC8F0A3E9F0A3EAF0A3EBF0A379082E
:100BF300E709F0A3D8FAECF0A3EDF0A3EEF0A3EF2E
:100C0300F0A3D0E0F0A3D0E0F0A3D0E0F0A3E52080
:100C1300F0A3E5F0F0A322851983851882E0C0E0F4
:100C2300A3E0F9A3E0FAA3E0FBA37808E0F608A3A6
:100C3300DFFAE0FCA3E0FDA3E0FEA3E0FFA3E0C036
:100C4300E0A3E0C0E0A3E0F5D0A3E0F520A3E0A398
:100C5300F5F010AF088583198582188008858319FC
:100C6300858218D2AFD082D083D0E0F8D0E032743E
:100C7300048006740280027401C0E0F404120A3C8A
:100C8300D0E0120953227404800474028000CCC0A3
:100C9300E0EDC0E0E518C39CCCAD1950011D10AFC9
:100CA300068C188D1980068C188D19D2AF12096025
:100CB300D0E0FDD0E0FC22D083D082E9C0E0E49311
:100CC300A3C386F0C5F095F0F908E493A386F0C5B5
:100CD300F095F0700BE493A3C3994005E9048002F7
:100CE300A3E475F002A42582F582E5F03583F5834C
:100CF300D0E0F9E493A3C0E0E493C0E022D083D032
:100D030082ECC0E0EDC0E0E493A3FCE493A3FDED2B
:100D13004C600D120D4CEC24FFFCED34FFFD80EF15
:100D2300E493A3FCE493A3FDED4C600D120D8BEC57
:100D330024FFFCED34FFFD80EFD0E0FDD0E0FCE4C8
:100D430093A3C0E0E493C0E022C0E0C3E493960819
:100D53007401939618400FE4936670080874019326
:100D6300661870007019A3A3C3E4939608740193E3
:100D73009618A3A3400DD0E0D0E0D0E0020D3CA331
:100D8300A3A3A3A3A3D0E022C0E0C0F088F0E49320
:100D93006670080874019366187000A8F0A3A37026
:100DA3000BD0F0D0E0D0E0D0E0020D3CA3A3D0F014
:030DB300D0E0226B
:100DB800C0E074F2120BBBA2AFE433FED2AFE589F8
:100DC800A2E15003120331758900C2C5751A00EEFD
:100DD800A2E092AF7F01020C1AC0E074F2120BBBC2
:100DE800A2AFE433FED2AFE58BA2E0500312033189
:100DF800758B00C2E880D5C0E0C0D0E8C0E0E5A8A7
:100E0800D2AFC2C7751A00A2E792AFD0E0F8D0D02F
:100E1800D0E03200851B87851CC622C0E0C0D0E820
:100E2800C0E0E9C0E0EAC0E0EBC0E0ECC0E0EDC043
:100E3800E0C008C009C00AC00BC082C083C0F075FA
:100E48009B00906182E0A2E64003020F01E591A2B7
:100E5800E64003020F017591BF900405E064057038
:100E68000812064312064F8003120649751B00122A
:100E780006A3E9900406F079001206851205837A24
:100E8800017B00900404E0F9120211907803E064F9
:100E9800426003020F4A900441E014F06003020F1D
:100EA8004AC2AF120EAE00781ED0E0F618D0E0F6B7
:100EB800E59F5407F970059080D180039080D5781C
:100EC8000812091DE9C4C0E0781DE65508F50808B0
:100ED800E65509F509740B78081209EAD0E02508E7
:100EE800F8906270E0A2E740F8E8C333906272F0CD
:100EF800906270E0D2E0F08049E0A2E55024E591EC
:100F0800A2E5501E7591DF900405E0640D70139002
:100F1800041BE004F064287002E4F07A00E0F9129F
:100F28000709906181E0A2E35009E5E9A2E35003D3
:100F380075E9F7A3E0A2E75009E591A2E750037528
:100F4800917FD0F0D083D082D00BD00AD009D008BE
:100F5800D0E0FDD0E0FCD0E0FBD0E0FAD0E0F9D062
:100F6800E0F8D0D0D0E032C0E0C0D0C082C08390DA
:100F78006183E0A2E05009E5BFA2E0500375BFFE1F
:100F8800E0A2E15009E5BFA2E1500375BFFDE0A270
:100F9800E25009E5BFA2E2500375BFFBE0A2E350AF
:100FA80009E5BFA2E3500375BFF7E0A2E45009E5E5
:100FB800BFA2E4500375BFEFE0A2E55009E5BFA268
:100FC800E5500375BFDFE0A2E65009E5BFA2E65091
:100FD8000375BFBFD083D0828088C0E0C0D0E8C08E
:100FE800E0E9C0E0EAC0E0EBC0E0ECC0E0EDC0E062
:100FF800C0F0E5A7A2E6500FE5A1A2E6500953A765
:10100800BF75A1BF121047E5A7A2E5500CE5A1A244
:10101800E5500653A7DF75A1DFE5A7A2E15009E572
:10102800A1A2E1500375A1FDE5A7A2E2500CE5A13C
:10103800A2E2500653A7FB75A1FBD0F0020F58742B
:10104800F8120ACF751B01900405E06406701512AA
:1010580006078A828B83A3A3A3A3A3A3E0FAA3E032
:10106800FB120631A2AFE433FED2AF90040BE0646A
:101078000170187A207B00900404E0F91202957A36
:10108800207B00900404E0F9120217906182E0D2FC
:10109800E6F0900440E0602185C61C801690040AA2
:1010A800E064017008E5C654F84405F5C653BEFC73
:1010B800120E1C7401651B60E4EEA2E092AF7F0182
:1010C800020B7B74EB120ACF74FA120A0C8A088B93
:1010D800098C148D15900405E024F7C39405500677
:1010E8009080AD02122D1206078A0A8B0BAE0AAF4A
:1010F8000BEE4F700302122AAC08AD0985188285E1
:101108001983AA82AB8312065B8E828F83A3A3788E
:101118000812091D9080BD780812090A8518828571
:101128001983780C12091D9080BD780C12090A7871
:1011380008790C120742501F7808790C1208E290BF
:1011480080A1780812076240478508108509118533
:101158000A12850B138041850C10850D11850E121E
:10116800850F13781079081208E29080A178101280
:101178000762501C75100075110075120075130177
:101188007810790C1208E2781079081208A98008FA
:101198009080AD781012091D7409781012088A9091
:1011A80080C9780812091D781079081208018E8202
:1011B8008F83A3A3A3A3A3A3E0F8A3E0F97AD07B2A
:1011C8000312098188088909E4F50AF50B78107972
:1011D800081208A97404120A57E0F8A3E0F97AD0B3
:1011E8007B03120981E8FA8A08E4F509781079087E
:1011F8001207425007781079081208E2900405E0B7
:101208006408600AE064066005E06405701C90806C
:10121800997810120762501290809D78101208BCBD
:1012280080089080C5781012091D85148285158361
:10123800781012092C7406120A227F0E020B7B7496
:10124800F7120ACF12066D90043EE0640170109008
:101258006245E4F0A3F053F4F343FE0C5390F31209
:10126800061FE5C654804449F5C6E59E547F644987
:1012780070F8906185740FF090043CE0F47002A35C
:10128800E0604E90043DE0600814601B14602E80FE
:101298004075080175090090043CE078081209F9C6
:1012A800E508F45280802A75080175090090043C0D
:1012B800E078081209F9E508F452908014750801DD
:1012C80075090090043CE078081209F9E508F45221
:1012D800A079007F02020B7B74F7120ACFE9FEEABD
:1012E800FF74016E700C7A807B00900404E0F912A0
:1012F8000211901484E493F46008E493F9120577DA
:10130800800953C680E59E547F70FA120625900422
:101318003EE06401700312058F90043CE0F4700213
:10132800A3E0604B90043DE0600814601A14602C40
:10133800803D75080175090090043CE078081209A1
:10134800F9E5084280802875080175090090043C79
:10135800E078081209F9E5084290801375080175CC
:10136800090090043CE078081209F9E50842A01247
:10137800066D1206078A088B09A808A909E84960BA
:1013880015E5E170FCE82414F582E93400F583E002
:10139800F46003E0F5E174016F700A7A01900404C7
:1013A800E0F912025F0212DB74F1120ACF8A088B8D
:1013B800098C0A8D0B740F120A57780C12091D90AC
:1013C80080BD780812090A9080BD780C12090A7845
:1013D80008790C12074250157808790C1208E29027
:1013E80080A17808120762401579018013780C797A
:1013F800081208E29080A1780C12076240EB79008D
:101408007F08020B7B74ED120ACF8A088B098C0ABD
:101418008D0B7413120A57780C12091D9080BD7831
:101428000812090A9080BD780C12090A780C79080C
:1014380012074240117808790C1208E2AA08AB0991
:10144800AC0AAD0B8022751000751100751200757D
:1014580013017810790C1208E2781079081208A99B
:10146800AA10AB11AC12AD137F0C020B7BC082C06B
:0B14780083E9906000F0D083D0822256
:10148400FFFFFFFFFFFFFFFF74F4120A63EAFEEBA6
:10149400FF12155C600579110215559003C7E054DD
:1014A4000A700579120215557A047B0012024790DE
:1014B40003E0EAF0A3EBF012155C70030215537518
:1014C40008047509007808120C76EEFCEFFD900311
:1014D400E0121DD7120A221204EDE960097A0C12F7
:1014E40016B17A0D801A8E828F83A3E0640270098C
:1014F4007A121216B17A1380077A101216B17A1181
:101504007B001204A58A0A8B0BAC0AAD0B8E828F6A
:1015140083A3A3A3E060047801800278009003C849
:10152400E07004790080027901E8F50A780A120C67
:101534007AE9F50A780A120C7AAA08AB098E828F26
:1015440083A3A3E0F912050B7402120A2280027924
:10155400137F04020B35E9FE9003E0E0F8A3E0F901
:10156400E8492274F7120A6312155A70047912803A
:101574001B12164E6E6004790380117A017B009071
:1015840003E2E0F912029579301217437F01020B4E
:101594003574F7120A6389087A019003C6E0F912D8
:1015A40004819003C7E0540A6058E5089003C6F02C
:1015B4007AA07B041204F99003C412155F703F9063
:1015C40003C6E0604775F00CA4FEAFF0FAEFFB121F
:1015D40002479003C4EAF0A3EBF09003C412155F32
:1015E400601CEEFCEFFD79001201DB7B009003C66A
:1015F400E0F8EBC3985015EB1217E80B80EF791362
:10160400800C9003C6E4F0FAFB1204F97900021589
:101614009074F6120A6379018A088B097808120C0F
:10162400BA0B20013C1633162E16121642600A120B
:101634001642F91204758001197F02020B358C825F
:101644008D83A3A3A3A3A3E0F8A3121B17E0227422
:10165400F4120A6312155A604FEE7034121B17A36A
:10166400E0640270047A0380027A021216B1E4F58F
:101674000AF50B7808120C727A017B009003E2E001
:10168400F91202897404120A227901120493E9FE00
:10169400EE60117A017B009003E2E0F9120295EE0C
:1016A400F912048D7901800279000215557B00122C
:1016B40004A58A088B092274F4120A63EA4B700C9D
:1016C40012155C607779001217438070EA2403F5E1
:1016D40008EB3400F509850882F583E0605E8A82B0
:1016E4008B83A3A3A3A3E0FEA3E0FFEE4F604D7A98
:1016F400247B001204A5EAF50B750A008030EE2461
:1017040028F582EF3400F583E0C3950BA2D265D0AF
:10171400334011EEFAEFFB120487E96007EEFAEFAB
:10172400FB120499EE2429FEEF3400FF050A850814
:1017340082850983E0F8E50AC39840C20215551270
:10174400048D79001204932274F5120A6389088ABD
:10175400099003C412155F607A750A00802FE50AA8
:1017640075F00CA4FEAFF01217DC24081217EF601A
:10177400071217FEE4F0A3F01217DC240A1217EF85
:1017840060091217FEA3A3E4F0A3F0050AE50AC357
:10179400950840CAE5099003C4600C121C739003B9
:1017A400C4E4F0A3F0802C12155F6027E50875F0FF
:1017B4000CA4FCADF079009003C4121C7A1201DB76
:1017C400750A008007E50A1217E8050AE50AC395B9
:1017D4000840F27F03020B359003C4E02EF8A3E027
:1017E4003FF9E822121C5274FFF022F8E93400F9A0
:1017F40088828983121C7AEA4B2212024D9003C418
:10180400E02EF8A3E03F8882F583A3A3A3A3A3A3B8
:10181400A3A32274E8120A6374FF120A0CEAFEEB13
:10182400FF7508007A007B0012155C7005790002D0
:101834001B07EE2408F50AEF3400F50BEE2409F536
:1018440012EF3400F5138E828F83E06401603478E4
:1018540012120C76850A82850B83E0FC7402120A4C
:1018640057AA82AB8379011204D57402120A22EAC0
:101874004B60078A828B83E0F5088E828F83E06455
:10188400046031121B11A3E0F87403686026E87049
:1018940004E508601FEA4B609474016870087403DF
:1018A4005508701080877402687082E508A2E040D1
:1018B400030218318E828F83A385820E85830FEEF7
:1018C4002402F50CEF3400F50DAA0CFBE0F9120428
:1018D400BDE9F8850E82850F83F0850C16850D17FA
:1018E40088119003C412155F606B751000800205A7
:1018F400109003C6E0F8E510C3985059E51075F050
:101904000CA4F508E5F0F5099003C4E02508FAA352
:10191400E03509FB8A828B83E0F460D3A3E0651190
:1019240070CD7514067515007814120C76AC16ADCE
:1019340017EA24020A0AEB3400FB1201D5740212DE
:101944000A22E960AA9003C4E02508F508A3E0355B
:1019540009F50980067508007509008E828F83E0F9
:10196400FAE50845097003021A20E508240AF50E71
:10197400E5093400F50FE5082408F50CE509340001
:10198400F50D74046A600C850C82850D83E0FAA35E
:10199400E0800E850E82850F83E0F8A3E0F9E8FA73
:1019A400E9FBEA4B7003021A88850A82850B83E0FF
:1019B400F5148A828B83E0651470257515007814FC
:1019C400120C76AC12AD138A828B83A3AA82AB83EA
:1019D4001201D57402120A22E9640170030218315B
:1019E4008E828F83E06404601D850C82850D8312D2
:1019F40017F87003021A8812024D850C82850D8334
:101A0400E4F0A3F0807E850E82850F831217F860C0
:101A14007312024D850E82850F8380E474046A700C
:101A2400030218319003C412155F602B7C008001FF
:101A34000C9003C6E0F8ECC398501CEC75F00CA4B1
:101A4400F8A9F09003C4E028F8A3E039F988828962
:101A540083E0F470DB80067582007583008582085C
:101A6400858309E50845097003021831EAF0850EFB
:101A740082850F83121C80120C76AC0CAD0D121DE6
:101A8400B6120A22850A82850B83E02401FAE43423
:101A940000FB120247EA4B605C8E828F83E0640491
:101AA4006014850882850983A3A3A3A3A3A3A3A386
:101AB400EAF0A3EB8018EAF8EBF98508828509833C
:101AC400A3A3A3A3A3A3A3A3A3A3E8F0A3E9121B23
:101AD4001D8A828B83121B1DF50875090078081274
:101AE4000C76AC12AD138A828B83A3AA82AB8312C9
:101AF4001DC0120A22850A82850B83E07003021836
:101B04003179017401120A227F10020B359003E02F
:101B1400E0F8A3E0F583888222F0850A82850B83AE
:101B2400E02274F0120A63890B750A0012155C70C6
:101B340003021C4D9003C412155F7003021C4DE593
:101B44000B701D750C00800DE50C121C52E0F46046
:101B540002050A050C9003C6E0F8E50CC39840E8BA
:101B6400850A08750900740378081209F9E5082440
:101B740006FAE5093400FB121C67EE4F700D7A0675
:101B84007B00121C67750A00750B13EE4F7003027D
:101B94001C368E828F8374D0F0A3E50B121DC6749D
:101BA40001121DC6A3E50AF0EE2404F582EF340009
:101BB400F583E50A6075EE2406F508EF3400F509AF
:101BC400E508F0A3E509F0750C009003C6E0F8E51C
:101BD4000CC398505AE50A6056E50C75F00CA4F84D
:101BE400A9F09003C4E028F8A3E039F9E8FAE9FB86
:101BF4008A828B83E0F4602FE0850882850983F074
:101C04008A828B83A3121C80120C76EA2402FCEBDA
:101C14003400FD121DB6120A22E5082408F508E571
:101C2400093400F509150A050C809FE4F0A3F012AD
:101C34001DE07A009003C6E0F91204819003E012DB
:101C44001C739003E0E4F0A3F07F08020B3575F0F9
:101C54000CA4F8A9F09003C4E028FAA3E0398A821E
:101C6400F583221201E18A088B09AE08AF0922121A
:101C74001C7A12024D22E0FAA3E0FB22E0850882DE
:101C8400850983A3F0750E06750F00780E2274F68D
:101C9400120A63E9FE7A237B001204A58B09EA4544
:101CA4000960047A0180027A00EEF9120511021625
:101CB4003D74F2120A638A088B0912155C700302E0
:101CC4001DB1EA2408F50AEB3400F50B850A82F508
:101CD40083E0240FFAE43400FB1201E18A0C8B0D3B
:101CE400AE0CAF0DEE4F7003021DB18E828F837464
:101CF400D0F0A3E4121DC6740DF085088285098313
:101D0400121DCEF0E5082428F582E5093400F58398
:101D1400E0C0E0EE240BF582EF3400F583D0E0F070
:101D2400850882850983A3121DCEA3F0750C067560
:101D34000D00780C120C76E5082402FCE509340049
:101D4400FDEE2405FAEF121DBD120A22850A8285D2
:101D54000B83E0F50AEE240CF582EF3400F583E5FD
:101D64000AF0EE240DF8EF3400F9E8FAE9FBE50A8D
:101D74006030EE240F0808EF3400F98A828B83E880
:101D8400F0A3E9F0750B00780A120C76E508240933
:101D9400FCE5093400FD8A828B83121DD7120A22C6
:101DA40080088A828B83E4F0A3F0121DE07F060290
:101DB4000B35E5082402FAE5093400FB1201CF745F
:101DC4000222F08E828F83A3A322E08E828F83A3CC
:101DD400A3A322121C7A1201CF740222EEFAEFFBA3
:101DE400121B11E0F91201ED22C082C083906190B0
:101DF4007404F0A37448F0A37402F09061807440FA
:101E0400F09061BC7403F09061877419F09062657E
:101E1400741BF090619C740DF090619A7433F0A37C
:101E24007455F09061A0743AF090043EE06401703F
:101E340009C291900409746780059004097461F0E3
:101E440090148AE493906186F0901484E493F4608F
:101E540027E493540FF8906185E0686012E5C65456
:101E6400804449F5C6E59E547F644970F8E8F05310
:101E7400C680E59E547F70FA79051206FD0220188B
:101E8400C082C083E9540FF9906185E0696012E56E
:101E9400C654804449F5C6E59E547F644970F8E908
:101EA400F053C680E59E547F70FA022018C082C0A9
:101EB40083E5A8F853A87E906181E4F0A3F0A3F031
:101EC400C2BA539AFEC289759B00C2C275E90075F5
:101ED400910075BF0075A91175B905906181F0A3D2
:101EE40074C0F0A3E4F0D2BA439A0174805842A8B3
:101EF400022018C082C08374F8120A0C900407E010
:101F0400F8A3E0F9E8497003022010900407E054B4
:101F14004060237908851882851983AA82AB8312CD
:101F240005B3851882851983AA82AB83120517909D
:101F34000407E054BFF0E0A2E0503190619A74339A
:101F4400F0A37455F09061A0743AF090043EE064FC
:101F5400017009C2919004097467800590040974A2
:101F640061F012051D900407E054FEF0E054026095
:101F74003190619A743FF0A3745AF09061A0747F19
:101F8400F090043EE064017009D2919004097471E8
:101F94008005900409746AF012051D900407E0544A
:101FA400FDF0E054046013901488E493906186F08B
:101FB400120523900407E054FBF0E05408601390EA
:101FC4001489E493906186F0120523900407E05489
:101FD400F7F0E05410601390148AE493906186F053
:101FE400120523900407E054EFF0E05420600A1235
:101FF4000523900407E054DFF0A3E05401600D12C0
:10200400058F120529900408E054FEF07408120AA2
:10201400228001F0D083D08202013574EC120A636D
:1020240074F4120A0C851882851983AC82AD837509
:1020340083807582C1740412096090148893F460DB
:10204400030221AC907808E0C39402500302218C6F
:102054007404120A57AC82AD8375838075825B74F5
:102064000812096085188285198385821285831375
:102074007404120A57AC82AD83750EFF750FFF7F8F
:10208400FF7E00750C48750D78801574086E70031A
:1020940002211F74096E700302211F740A6E607B93
:1020A400850C82850D83780812091D8C828D83A985
:1020B40009E50AC9F8881074187808120871E5103F
:1020C4004508F8C3E098A3E099850C82850D8378D0
:1020D4000812091D40188C828D8374187808120820
:1020E40071E5104508F8E0C398F8A3E0801C741863
:1020F4007808120871E5104508FAE9FB8C828D8393
:10210400E0F8A3E0F9EAC398F8EB99F9C3E8950E6F
:10211400E9950F5006880E890FEEFF0EE50C240496
:10212400F50CE50D3400F50DEEC3941350030220B5
:102134008F74FF650E700474FF650F60238F08743D
:102144000278081209F974482508F582747835096B
:10215400F583780812091D851282851383E508F03A
:10216400EC24020C0CED3400FD851282851383A34C
:10217400858212858313740C120A57E5826C7003EE
:10218400E5836D600302207D7508017509007808F8
:10219400120C767402120A57AC82AD837A227B0544
:1021A4001203077402120A22740C120A227F0C0210
:1021B4000B35C082C0839061AE7468F0A3746AF07A
:1021C40090624574FBF0A304F053F4FD43FE0290C7
:1021D400043E7401F09061A0E0643A90619A702327
:1021E4007433F0A37455F09061A0743AF0740164F0
:1021F400017009C2919004097467802890040974DD
:10220400618021743FF0A3745AF09061A0747FF050
:10221400740164017009D29190040974718005906D
:102224000409746A022017C082C08390043974259B
:10223400F09004377401F0A3E4F07A01FB120691E4
:10224400900425E02416F8A3E03400F988828983F9
:1022540074A1F0A37405F0900436E0640170169044
:102264000435E0701079011206D91206AF1206D3B4
:1022740079001206E5022018C082C08374FA120A9B
:102284000C90042EE06401700812059590042EE46D
:10229400F075E1F1900425E02415F8A3E03400F989
:1022A400888289837401F0900430E0640170769030
:1022B4008063C082851882851983AC82AD8375835F
:1022C40080D082740612096075D90D900427E0C489
:1022D400333354C04403F5D978257904888289833B
:1022E400A3A3A3E0F5D988828983A3A882A983E85C
:1022F400642B7003E9640470E3851882851983A84C
:1023040082A98388828983E0F5D9A3A882A98374EA
:1023140006120A57E582687003E5836970E575E182
:10232400957901800279001206979004F274C5F041
:10233400A37405F0A374CBF0A37405F0A374C5F0E3
:10234400A37405F0A374C5F0A37405F0A374BFF0DF
:10235400A37405F0A374BFF0A37405F0A374D1F0C3
:10236400A37405F090050074BFF0A37405F0A37482
:10237400BFF0A37405F0A374BFF0A37405F0A374B5
:10238400BFF0A37405F0A374BFF0A37405F0A374A5
:10239400BFF0A37405F0900427E0F97A287B0412B7
:1023A4000679900439E0F9121475790112069D90AA
:1023B40080CD12093B1206A99080B512093B120682
:1023C4007F79001206F1900425E02414F8A3E03488
:1023D40000F9888289837416F09004057405F0046A
:1023E400022012C082C083900425E0F8A3E0F583A4
:1023F4008882A3A3A3A3A3A3E4F0A3F0900439E0E9
:10240400F9121475022018C082C083780C790488EC
:10241400828983A3E4F088828983A3A882A983E8BC
:1024240064147003E9640470E690040D74010220DE
:102434001774F4120A63E9900404F01206679078A2
:1024440000E0C4540F540764037004793F80027998
:102454007F7508067509007808120C767CF27D03F6
:102464007AEA7B071203017402120A229003F2E053
:10247400F47049A3E0F47044A3E0F4703FA3E0F4E3
:10248400703AA3E0F47035A3E0F4703090780EE075
:102494009003F2F090780FE09003F3F0907810E05E
:1024A4009003F4F0907811E09003F5F0907812E046
:1024B4009003F6F0907813E09003F7F09003F8742B
:1024C400FFF0A3F0A3F0A3F0A3F0A3F09003F2E0D5
:1024D4009003FEF09003F3E09003FFF09003F4E028
:1024E400900400F09003F5E0900401F09003F6E00E
:1024F400900402F09003F7E0900403F09004167443
:1025040006F0A3740DF0A3E4F0A37432F0A37401F5
:10251400F090042874FFF0A3F0A3F0A3F0A3F0A3B9
:10252400F0900427E4F090042E04F0A3E4F0A3F068
:10253400A37480F0A37402F0A37480F0A37402F077
:10254400A3E4F0A304F0A3F0A3E4F0A37425F0A3A0
:10255400E4F0A3F090043C74FFF0A3E4F090043E94
:10256400F090044004F012058912055912061979F5
:10257400017A417B041205B3900441E075F01484A0
:10258400E5F004F01205B97A00900404E0F91202AF
:102594005F907803E06442705E900441E014F07050
:1025A40056C2AF1225AA00781ED0E0F618D0E0F685
:1025B400E59F5407F970059080D180039080D57809
:1025C4000812091DE9C4C0E0781DE65508F508089D
:1025D400E65509F509740B78081209EAD0E02508D4
:1025E400F8906270E0A2E740F8E8C333906272F0BA
:1025F400906270E0D2E0F0900423E4F0A3F07A80DB
:10260400FB900404E0F9120211022A6C74F7120A16
:1026140063EAFEEBFFEEA2E05047900406E0C394A9
:1026240080E0500FC333F8E433F974F228F5827470
:1026340004800EF4C333F8E433F9740028F582748B
:102644000539F583E0F8A3E0F5838882120A617AFC
:1026540000900404E0F912025FEE6401FAEFFB80DB
:102664004D5480602179001202599080B1120C8976
:102674007A007B01900404E0F91202897404120ABE
:1026840022EE648080D6EF5401600C790112025965
:10269400EEFAEF640180C790040BE06401700BEE66
:1026A40054206006EE6420FA80047A007B0002273E
:1026B4008EC082C083C2AF120649E5E170FC75E1A9
:1026C4000112057D12057175E1F112067379071285
:1026D40006EB79011206F1790212068B1206AF128B
:1026E40006D379001206E579011206E59080B51249
:1026F400093B12067F90042FE4F01205E31205A7AC
:1027040079001206F7906012E4F0A3F0906063F091
:10271400751B00900405F0900407F0A3F090040AE0
:10272400F090040B04F090041504F090043FE4F0DE
:10273400D2AFF9022787C082C0839003F2E08A8275
:102744008B83F09003F3E08A828B83A3F09003F4ED
:10275400E08A828B83A3A3F09003F5E08A828B83C3
:10276400A3A3A3F09003F6E08A828B83A3A3A3A37D
:10277400F09003F7E08A828B83A3A3A3A3A3800032
:10278400F07900D083D0820201357F01020B3574C9
:10279400F7120A63E9FE7409120A57E0FF740A1279
:1027A4000A57E0F508EE600574016E703BEF6005B2
:1027B40074016F7033EA24FCF8EB34FFF9C3E89436
:1027C400FDE9943F5022EC24FCF8ED34FFF9C3E812
:1027D40094FDE9943F5011C3EA9CEB9D400AE5083F
:1027E400600B740165086005791202289290042F29
:1027F400E064017005790C022892EEA3F0E50890DC
:102804000435F0EF900427702FE4F09003F2E09089
:102814000428F09003F3E0900429F09003F4E0908E
:10282400042AF09003F5E090042BF09003F6E09076
:10283400042CF09003F7802E7401F09003F8E090DC
:102844000428F09003F9E0900429F09003FAE09052
:10285400042AF09003FBE090042BF09003FCE0903A
:10286400042CF09003FDE090042DF0900431EAF084
:10287400A3EBF0A3ECF0A3EDF0E50870047900807D
:102884000874016508700579011206BB79000227F6
:102894008E74F4120A63E9FEEAFF900405E0640909
:1028A4006014E0640A600FE0640B600AE0640C608A
:1028B40005E0640D70057921022A6C900430E06013
:1028C4000464017054900427E060046401704A9029
:1028D4000431E024FCF8A3E034FFF9C3E894FDE9F3
:1028E400943F5035A3E024FCF8A3E034FFF9C3E897
:1028F40094FDE9943F5022900431C082900433E067
:10290400F8A3E0F9758304D082C3E098A3E099406A
:1029140008EF600A74016F60057912022A6CEE7088
:10292400030229E11470F290042FE06401608779B6
:10293400021205FB900425EAF0A3EBF090042F7437
:1029440001F090042EF0EF900436F0900405E0605E
:1029540003022A6A12059B1206558A088B098C0AFF
:102964008D0B9080B978081208BC9080BD7808124D
:10297400090A900425E0F8A3E0F5838882A3A378EC
:102984000812092C900425E0F8A3E0F5838882A3BB
:10299400A3A3A3A3A3E4F0A3F0900425E0F8A3E089
:1029A400F5838882A3A3C082C083900433E0F50832
:1029B400A3E0F509E4F50AF50BD083D08278081278
:1029C40008BC900425E0240EF8A3E03400F98882C2
:1029D4008983780812092C1205E9022A6A90042FC7
:1029E400E070030228BAA2AFE433F508C2AF7A2537
:1029F4007B0412060190042FE4F0120613E9703CE4
:102A0400120649906182E0C2E6F0E5E170FC75E1EE
:102A1400017591BF79011206F175E1F190040BE0A3
:102A2400640170187A207B00900404E0F912029586
:102A34007A207B00900404E0F9120217E508A2E072
:102A440092AF900435E0640170051206D38017A399
:102A5400E064017011900435E0700B1206AF1206A9
:102A6400D379011206DF79007F04020B35C082C0DE
:102A74008390046DE4F090046C74FFF0900469F0AA
:102A8400900468E4F0900467F090046AF0A3F00204
:102A9400306D74F0120A6390046AE0F508A3E0F55F
:102AA40009E50845097006120583022CDE850882B3
:102AB400850983E014600A14600724FE6003022C75
:102AC400DEE0F91205F58A0A8B0BAE0AAF0BEE6550
:102AD400087003EF65098E828F836003022C07E080
:102AE40064026003022CD7EE2415F582EF3400F55E
:102AF40083E06041900431E0F8A3E0F9A3E068705A
:102B040003A3E069602F1206558A088B098C0A8D8D
:102B14000B9080A578081208BC7808120C728E827B
:102B24008F83A3A312093B1213B07404120A22E97F
:102B34006003022CD71206558A088B098C0A8D0B68
:102B44009080D978081208BC9080BD780812090AD0
:102B54008E828F83A3A3780812092CEE2415F582A4
:102B6400EF3400F583E0640170338E828F83A3A376
:102B7400C082C083900433E0F508A3E0F509E4F5CE
:102B84000AF50BD083D08278081208BCEE240EF527
:102B940082EF3400F583780812092C8063EE240E4A
:102BA400F582EF3400F583120C898E828F83A3A300
:102BB40012093B1213B07404120A22E96401704032
:102BC4008E828F83A3A3C082C083900433E0F50870
:102BD400A3E0F509E4F50AF50BD083D08278081256
:102BE40008BCEE240EF582EF3400F5837808120950
:102BF4002C900439E06427700474258002E004F00A
:102C0400022CD7E064026003022CDE12059B9004C0
:102C140036E064017016900435E0701079011206F4
:102C2400D91206AF1206D379001206DF900431E000
:102C3400F8A3E0F9A3E0687003A3E069602C12062E
:102C4400558A088B098C0A8D0B9080A57808120888
:102C5400BC7808120C728E828F83A3A312093B12D4
:102C640013B07404120A22E97063EE2402F8EF34FC
:102C740000F9880889091206558A0C8B0D8C0E8D73
:102C84000F9080D9780C1208BC9080BD780C120982
:102C94000A850882850983780C12092C85088285A7
:102CA4000983C082C083900433E0F508A3E0F509EA
:102CB400E4F50AF50BD083D08278081208BCEE2420
:102CC4000EF582EF3400F583780812092C9004691C
:102CD4007402F0EEFAEFFB1205EF7F08020B357475
:102CE400F0120A63EAFEEBFFEE2402F8EF3400F977
:102CF40088088909EE2406F8EF3400F9880A890B5C
:102D04008882F583120C8D85088285098312093B1C
:102D14001206377402120A22850A82850B83120C6A
:102D24008D85088285098312093B12062B740212D1
:102D34000A22EE240EF582EF3400F58312093B12C9
:102D4400063D8E828F83E06440701CEE2412F8EFFF
:102D54003400F988828983E0906064F088828983F2
:102D6400A3E09060658006906064E4F0A3F09004B2
:102D74006AEEF0A3EFF0EE2416F582EF3400F5834B
:102D8400E0F8A3E0F5838882120A61906054E4F0CD
:102D9400A3F0A3F0A3F0A3F0A3F0A3F0A3F0A3F097
:102DA400A3F0A3F0A3F0906182E0C2E6F07591BFB6
:102DB400EE2415F582EF3400F583E064017003120C
:102DC400066DE5E170FCEE2414F582EF3400F58322
:102DD400E0F46003E0F5E1EE2415F582EF3400F54C
:102DE400837401F090040BE06401706F1206558A3D
:102DF400088B098C0A8D0B7808120C728E828F83D3
:102E0400A3A312093B12140D7404120A228A088B1C
:102E1400098C0A8D0B9080DD780C12091D780879D5
:102E24000C12078174037808120871E50824F4F57C
:102E340008E5093401F509900440E0600312023505
:102E4400E4F50AF50B7808120C727A207B009004E2
:102E540004E0F91202897404120A22022CDE74F0CE
:102E6400120A63890874FF6508702A900468E054A4
:102E740007601F90046CE06404600AE0640160056C
:102E8400E064027010A3E06401701E7A6C7B04029B
:102E94002FA0022F9C90046CE06508700CA3E064E2
:102EA4000170067E6C7F0480047E007F0090046CB9
:102EB400E06508700AA3E064017004780180027878
:102EC40000E914600F147003022F6224FE700302E1
:102ED4002F7980BE90046CE06402703CA3E064012E
:102EE4007075E8A2E050A4A3780C12091D9080E14B
:102EF400780C1208BC780C120C728E828F83A3A3F8
:102F040012093B1213B07404120A22E96003022E60
:102F14008FEEFAEFFB022FA0E06404703AA3E064A2
:102F2400017034E8A2E04003022E8FA3780C12094A
:102F34001D9080E1780C1208BC780C120C728E8201
:102F44008F83A3A312093B1213B07404120A22E95B
:102F54006003022E8F80BAE8A2E0503C80B3900454
:102F64006CE064047008A3E0640170EB80B5E06475
:102F74000160F380E290046CE064017008A3E064F3
:102F840001700D809EE064027006A3E0640160930A
:102F9400E8A2E05003022F157A007B00022CDE74B5
:102FA400F7120A63E9FE90046DE0705B7401F0EEC1
:102FB40090046CF012065590046E12094790047246
:102FC400E4F0A3F090808512093B90047A1209473B
:102FD4009004807401F0A3F0A3E4F0A3F0900468DB
:102FE400E04EF0900467E004F06401600A74806EBF
:102FF400600574406E700A90046A746CF0A37404E3
:10300400F07A6C7B0480047A007B007F01020B352C
:10301400C082C0838A828B83E0F8A3E0F98A828B22
:1030240083E4F0A3F088828983A3F088828983E013
:10303400F4F8900468E058F0900467E014F0700B22
:1030440090046AE4F0A3F0900405F0801CC082C0F0
:1030540083900467E0600A90046AE0FAA3E0FB80CE
:10306400047A007B008002E0F9D083D0820201352B
:10307400C082C083E9F890046CE0687005A3E0F9AD
:103084008002790080E3C082C08390046780D8C046
:1030940082C08312067312066D02352CC082C0836F
:1030A4009061B1E0C2E0F0E04403F0906188E06434
:1030B4000470F802352CC082C0839061C0E0FAE449
:1030C400F0F8F9E82400F582E93460F583E412307D
:1030D400E99480E9940140EBEA9061C0F090618A40
:1030E4007401023527F01230EE22E8240108E93495
:1030F40000F9C3E822C082C0838A828B83E0906097
:10310400161234C2A3E0906017123137906018127F
:10311400314090601912314590601A12314A906022
:103124001BF0E99060157005E0C2E08003E0D2E096
:1031340002352BF08A828B83A3A3E022123155E05F
:1031440022123150E022123150A3E022123155A351
:1031540022F08A828B83A3A3A32274F0120A63EA67
:10316400906005F0EBA3F0ECA3F07F08020B35C0F0
:1031740082C0837401699060037005E0D2E080032B
:10318400E0C2E002352BC082C083906003E054F9B2
:103194004902352BC082C083EA90600AF0EB5401E7
:1031A40002352AC082C083E990600C7005E0C2E059
:1031B4008003E0D2E002352BC082C083E990600C2A
:1031C4007005E0C2E18003E0D2E102352BC082C089
:1031D40083906061E002320A74F0120A63EA90613B
:1031E4009512351E02316CC082C083900484E4F0D1
:1031F400906022F0A3F0A37830F0A3D8FC02352C21
:10320400F07F02020B35F902352C74F4120A63EADA
:10321400FEEBFF89088C09900484E064087004794B
:1032240003807E12070FE9F460047900807379004B
:10323400750A01750B00E9780A1209F9AC0A906065
:1032440022E05C7053E04C1232AAFA74603BFB78C3
:10325400068E828F831234ED8E828F83A3AE82AF6B
:10326400838A828B83A3AA82AB8318E870E3E50880
:10327400700AECF4F8906023E0588005906023E035
:103284004CF0900484E004F07401650970051206A2
:10329400C180971206CD809209E9C39408409179C0
:1032A400017F04020B35F0E975F006A4FAABF07463
:1032B400242A22C082C083E99060147005E0C2E22F
:1032C4008003E0D2E202352B74F6120A637508011A
:1032D400750900E978081209F9906009E0450802C7
:1032E400320474F7120A6312070F74FF696007123D
:1032F40006C17900800279057F01020B3574F6124C
:103304000A63750801750900E978081209F9E508E6
:10331400F4F8906009E058023204C082C0839060DF
:1033240009E402352B74F2120A6374FA120A0C7A55
:10333400007B60E970027A33906009E0F8906022C3
:10334400E0F50BA3E0F99061C07401F0E88A828B88
:1033540083F0A3E50BF0A3E9F0A3AA82AB83906109
:10336400C0E4F0F50A750C01750D00E50A780C123D
:1033740009F9E50C550B6056750900E50A75F00668
:10338400A4F8A9F0850982AC82742428FE746039FB
:10339400FFEE2CF582EF1234B7C0E0123493D0E084
:1033A4001234C840DF9061C07401F0750900123412
:1033B400A5C0E0E82CFCE93400FDEA2CF582EB3DE5
:1033C400F583D0E01234C840E59061C0E4F0050A0A
:1033D400E50AC39408408E7406120A227F06020B83
:1033E4003574F2120A6374FA120A0C7A007B60E9EB
:1033F40070027A331234BDE0F8A3E0F50BA3E0F9D0
:10340400A3AA82AB839061C0E4F0E8906009F0E580
:103414000B906022F0E9A3F0750A00750C01750D9C
:1034240000E50A780C1209F9E50C550B605590611A
:10343400C07401F0750900E50A75F006A4F8A9F056
:10344400850982AC82EA28FEEB39FFEE2CF582EF87
:103454001234B7C0E0123493D0E01234C840E19083
:1034640061C0E4F0F5091234A5C0E0E82CFCE934AD
:1034740000FD74242CF58274603DF583D0E0123491
:10348400C840E3050AE50AC39408408F0233DB858C
:103494001882851983E5822CF582E5833400F5834F
:1034A40022850982AC82851882851983E5822CF5F0
:1034B40082E5833400F583E0229061C07401F08AD0
:1034C400828B8322F00509E509C3940622C082C0D9
:1034D400837A007B60E970027A331234BDE4F0A38E
:1034E400F0A3F09061C002352B1234F12212359A08
:1034F400F022C082C083E9906002802BC082C08326
:10350400E99060027005E0D2E38003E0C2E3801733
:10351400C082C083E99061C6800DF0EBA3F0ECA3F8
:10352400F0ED22F0A3F0A3F0D083D082020135C0E5
:1035340082C083E9601714601C146021146026148F
:10354400602B14603014603614603C80419061E953
:10355400E054FC80389061E9E0D2E080309061E989
:10356400E0C2E080289061E9E0D2E180209061E946
:10357400E0C2E180189061E9E0C2E1F080DA906194
:10358400E9E0C2E0F080E19061E9E04403F0809872
:1035940075E182020135E08A828B8322C082C08376
:1035A400E9C3332417906184F074016A7007906151
:1035B400A6740A8017E9C39414E0500904F09061DA
:1035C400A67425800714F09061A6740F02352B743D
:1035D400F5120A63890A7900750801750900E9780A
:1035E400081209F9906022E055086052E975F00666
:1035F400A4FCADF074242CFC74603DFD75080085BA
:103604000882AE82EC2EF582ED1234B7F8EA2EF57C
:1036140082EB1234B76870090508E508C3940640C4
:10362400DE740665087017906023E0F508750900DC
:10363400E978081209DAE5085401650A600909E91C
:10364400C39408409379FF7F03020B3574F4120A84
:103654006374FC120A0C7E00900342E4F090033F72
:10366400F07F7D7508047509007808120C767402E1
:10367400120A57AC82AD837A007B00EF123B2B1207
:103684000A22851882851983C082C083908081783C
:103694000812091DD083D082780812072D70199062
:1036A400033FE06010F91203FDEFF91203FD9003EC
:1036B4003FE4F08021EF80FA851882851983780829
:1036C40012091DE5084509450A450B7004EFFE8003
:1036D40005EFF91203FD0FEFC3947F408690033F7B
:1036E400E07026EE7018797D1203F19003407404A3
:1036F400F0A3E4F0900342E0601979008017F0121F
:103704000403EEF912040F800AEE6004F91203F7C1
:1037140012040379010237B874F7120A6374FC12B5
:103724000A0CE9FE90808112093B85188285198371
:10373400120947851882851983AC82AD837A007B90
:103744000012041B900342E07005EE90033FF074F6
:1037540004120A227F01020B35D083D08202013584
:1037640074F4120A6374FF120A0C8908900342E08D
:1037740060089003427401F0803612030D7E007FCE
:1037840000750A01750B00780A120C767402120A8D
:1037940057AC82AD83EEFAEFFBA908123B2C120A58
:1037A40022851882851983E0F470C712380A40D143
:1037B400740180027404120A227F04020B3574F42B
:1037C400120A6374FF120A0C89087E007F00750ACE
:1037D40001750B00780A120C767402120A57AC8237
:1037E400AD83EEFAEFFBA908123B2C120A228518CE
:1037F40082851983E0F46007A9081203F780051293
:10380400380A40CA80AAEE24010EEF3400FFC394A4
:10381400082274F4120A6374FC120A0C7EFC7F07FB
:103824007508047509007808120C767402120A5798
:10383400123B1F120A22851882851983C082C08315
:10384400908085780812091DD083D08278081207E9
:103854002D700AEE24FCFEEF1238FF50C3EE240450
:10386400F8EF3400F9900340E8F0A3E9F00237B828
:1038740074F4120A6374FC120A0C8909EAFEEBFF61
:103884008C08EE24FCFEEF1238FF4068750A0475BC
:103894000B00780A120C767402120A57AC82AD83BC
:1038A400EEFAEFFBA909123B2C120A227402120A47
:1038B40057E0F8A3E0F985188285198385080AE0A2
:1038C400650A7002A3E0700AEEC398FAEF9400FB55
:1038D4008026E9548070ABE82404FAE93400FBC381
:1038E400EE9AEF9B400EEEC398F8EF99F9E824FCAA
:1038F400FEE980937A007B000237B834FFFFC3EE01
:103904009404EF94002274EA120A6374F8120A0C05
:103914008910750DFF747D65107005750C7E80032C
:10392400750C7D750A04750B00900340E024FCFEC1
:10393400A3E08005EE24FCFEEF1238FF5003023AA8
:1039440067900342E06003023A8175080475090038
:103954007808120C767402120A57AC82AD83EEFA20
:10396400EFFBA910123B2C120A22851882851983B9
:10397400E0F47003A3E0F4702D7402120A57E0F827
:10398400A3E0F9548070AD123BACEE98EF9950036C
:10399400023A817402120A57123A8BF8EF99F9E845
:1039A40024FCFEE98093851882851983A3E0548062
:1039B40070E1851882851983850D08E06508700219
:1039C400A3E060CF851882851983E0F50DFCAA0A6F
:1039D400AB0BA90C1204098B09EA450970B57402F2
:1039E400120A57123A8BF508EF99F50988148915CC
:1039F400750E00750F007512047513007812120C01
:103A0400767406120A57AC82AD83E508250EFAE5F2
:103A140009350F123B26120A227404120A57AC828B
:103A2400AD83E50A250EFAE50B350FFBA90C12044C
:103A34001BE50E2404F50EE50F3400F50FC3E51461
:103A4400950EE515950F50AE7402120A57E0240442
:103A5400F8A3E03400F9E50A28F50AE50B39F50B7B
:103A6400023997A90C1203F1900342E0700A900303
:103A740040E50AF0A3E50BF0A9101203F77408124D
:103A84000A227F0E020B35E0F8A3E0F9EEC3982278
:103A940074F0120A6374FC120A0C890B8A088B09ED
:103AA400ECFEEDFF7414120A57E0F50A8014E508E1
:103AB4002404F508E5093400F509EE2404FEEF3486
:103AC40000FF850A0C74FF250CF50A046043750E8B
:103AD40004750F00780E120C767402120A57AC8229
:103AE400AD83AA08AB09A90B123B2C120A22780E4B
:103AF400120C76EEFCEFFD7402120A57AA82AB8315
:103B04001201D57402120A22E970A39003427401CF
:103B1400F07404120A227F08020B35AC82AD83EEE6
:103B2400FAEFFB90033FE0F912030174022274F1EF
:103B3400120A63890E8A088B09ECFEEDFF9003429A
:103B4400E0704D750A01750B00780A120C768A0A2A
:103B54008B0B7402780A1209EA890CF50D74097842
:103B64000C1209F9E50A2400FAE50B350DFB1203E2
:103B7400077402120A22750A01780A120C7AEEFC02
:103B8400EFFDAA08AB09A90E1204157401120A224A
:103B94007F07020B35C082C0831203EBE9700479FE
:103BA400018002790002375DE82404F8E93400F961
:103BB400C32274F4120A63907803E06442705E9046
:103BC4000441E014F07056C2AF123BD000781ED00E
:103BD400E0F618D0E0F6E59F5407F970059080D11F
:103BE40080039080D5780812091DE9C4C0E0781DCF
:103BF400E65508F50808E65509F509740B78081226
:103C040009EAD0E02508F8906270E0A2E740F8E8FD
:103C1400C333906272F0906270E0D2E0F0790212E5
:103C2400060DE96401702FE5A1A2E5500875A1DF36
:103C34001205CB8024900406E07004790180027997
:103C4400001205D7900425E02415F8A3E03400F908
:103C540088828983E4F01205E97F04020B3574F449
:103C6400120A63790212060DE964016003023D2A17
:103C740079011205D7900439E06427700474258013
:103C840002E004F0900425E02402F8A3E03400F9F3
:103C9400E8FAE9FB900431E0F508A3E0F509E4F55E
:103CA4000AF50B8A828B8378081208CF900425E0EA
:103CB400F8A3E0F5838882A3A3A3A3A3A3E4F0A3BA
:103CC400F0900433E0F508A3E0F50989838A82784B
:103CD400081208BC900425E0240EF8A3E03400F98F
:103CE40088828983780812092C900425E02414F82A
:103CF400A3E03400F9888289837416F0900425E0E7
:103D04002416F8A3E03400F98882898374A1F0A30F
:103D14007405F0900425E02415F8A3E03400F98834
:103D24008289837401F01205E9023C5DC082C0837C
:103D340053BFEF790212060DE96401700C7A257BFA
:103D44000412060190042FE4F075E1F11205E9D0A4
:103D540083D08202013574F6120A6374FC120A0CD1
:103D6400E9FE9061C8E07003023F9E7401120A5795
:103D74008582088583097808120C767508487509C8
:103D8400047808120C767406120A57858208858313
:103D9400097808120C767508427509047808120C23
:103DA400767408120A57AC82AD83740B120A57AAB0
:103DB40082AB831205DD7408120A22900436E06493
:103DC40001702C900435E070137C018518828519EC
:103DD40083E0F97A427B041206B580136401700F04
:103DE400851882851983E0F97A427B041206C77428
:103DF40001120A57E0F5087808120C7A750848751C
:103E040009047808120C767405120A57E0FB7C4208
:103E14007D047403120A57E0FA7406120A57E0F993
:103E24001205477403120A221207039061C8E07056
:103E340003023F9E74016E6003023F327401120A52
:103E4400578582088583097808120C7675084875A9
:103E540009047808120C767406120A5785820885BC
:103E640083097808120C76750842750904780812DB
:103E74000C767408120A57AC82AD83740B120A577D
:103E8400AA82AB831205DD7408120A227401120A95
:103E940057E0F5087808120C7A7508487509047813
:103EA40008120C767405120A57E0FB7C427D0474F8
:103EB40003120A57E0FA7406120A57E0F91205478A
:103EC4007403120A2290043BE4F090043AE004F0F4
:103ED40064027026900437E0F8A3E0C313F9E813F2
:103EE400F8900437F0A3E9F0E849700990043774B6
:103EF40001F0A3E4F090043AE4F0900437E06401A4
:103F04007002A3E070067A017B00801A1205ADE905
:103F1400F87900900437E0FAA3E0FB120981EA245F
:103F2400010AEB3400FB120691120703806C75E161
:103F34008190043AE4F0A3E004F06402702D90044C
:103F440037E0F8A3E0F9E8C333F8E933F99004372C
:103F5400E8F0A3E9F0C3E89401E99401400890046F
:103F640037E4F0A304F090043BE4F0900437E064F9
:103F7400017002A3E070067A017B00801A1205AD7D
:103F8400E9F87900900437E0FAA3E0FB120981EA2A
:103F940024010AEB3400FB1206917404120A227FF6
:103FA40002020B3574F1120A6374FE120A0CEAFE63
:103FB400EBFF8C088D097411120A57E0FAA3E0FB99
:103FC4007413120A57E0F8A3E0F9880C890D7415EC
:103FD400120A57E0F8A3E0F97417120A57E0FCA399
:103FE400E0FDE5D924F9F50A850C82850D83F0E519
:103FF400D9F50B740F550B6010146014146023244E
:10400400FE602F24FE602380318E828F83E4803013
:104014008E828F837401F0850C82850D83E024FAEF
:10402400801E8E828F83740380168E828F83740227
:10403400800E8E828F83740480068E828F8374FF39
:10404400F0E50BA2E6E433850882850983F0EA4BA8
:10405400700A7A06E5D91AEA601E80F88A828B8390
:10406400E5822406FAE5833400FBE5D9F0A3EA658A
:10407400827003EB658370F2E849700DE50A601AFB
:10408400FAE5D91AEA601380F8E50A600D88828996
:1040940083FBE5D9F0A31BEB70F88518828519839F
:1040A400A882A983E5D988828983F0A3A882A983F9
:1040B4007402120A57E582687003E5836970E58526
:1040C4001882851983E0648070088C828D83747FE4
:1040D4008012900409E0F8851882851983E0C3985A
:1040E4008C828D83F07402120A227F07020B35C082
:1040F40082C0839003EA74FFF0A3F0A3F0A3F0A3BB
:10410400F0A3749FF0A3E4F0A37420F09003E914E7
:10411400F0D083D0820201357F02020B357F0A0280
:104124000B3574EE120A638A088B09890B8C0E8D89
:104134000F900487E07009900489E070030241F055
:104144009003E7E060030241F0898285820C750DDB
:1041540000E92407FAE43400FB1201E18A108B1110
:10416400AE10AF11EE4F700302420174186508706F
:104174000474206509600C74176508700474206564
:10418400097010900489E0600AF50A8E828F8374A6
:1041940092800C900487E0F50A8E828F837491F0EC
:1041A400A3740E1242238E828F83A3A3F08E828F78
:1041B400831245F1EE2405F8EF3400F9E8FAE9FB3F
:1041C400EE24070808EF12438DF0780C120C76AC3D
:1041D4000EAD0F8A828B83E0FAA3E0124354120AD5
:1041E40022EEFAEFFBA90A1201ED8011780E120CEF
:1041F40076AC0B790E1205417402120A2202412197
:1042040074F6120A63E9FE8C088D097808120C769C
:10421400EEFC79FF1205417402120A2202411CF0DD
:104224009003E8E02274F0120A6389098A0A8B0B6E
:104234008C087410120A57E0F50CA3E0F50D74070E
:104244002508FA74FF65096004780380027802E89F
:104254002AFA7B001201E18A0E8B0FAE0EAF0FEE2D
:104264004F700302432B8E828F837401F0A374FF7B
:10427400F0EE24020A0AEF3400FBEE2404F8EF12F5
:104284004380E509124376E024021245A4A90B7485
:10429400FF6509603174032508124223C0E012430C
:1042A40039D0E0124364E50A124364A3E9F08508B7
:1042B4000A750B00780A120C76AC0CAD0D8A828B51
:1042C40083E02406805574022508124330C0E012AE
:1042D4004339D0E012435BE0C0E0124346D0E01221
:1042E400435BA3E0C0E0124346A3D0E0124370E571
:1042F4000A124370A3E9F085080AE50A24FDF50AC9
:10430400E434FFF50B780A120C76E50C2403FCE583
:104314000D3400FD8A828B83E0240812434B120A79
:1043240022EEFAEF1246147F08020B35F0850C8258
:10433400850D83E02212433D228A828B83E012455D
:10434400972212433DA322FAA3E0340012435422DD
:10435400FB1201CF740222F0850C82850D83A32207
:104364001243682212439DA3A3A3A322124368A36A
:10437400A32212437A22F08A828B832212438D1263
:1043840043997404124399A3223400F98A828B83DB
:10439400E8F0A3E92212439D22F08A828B8312461D
:1043A400062274E8120A6389148A118C168D178BFD
:1043B4000D741A120A57E0F5108B82AE82900487AE
:1043C400E0700302448C7A2F12456A70030245653B
:1043D4001245D87402F0EA2403F50EEB3400F50F0D
:1043E400850E82F5837401F0EA2406F508EB3400A7
:1043F400F5091245EC750C008073850882850983E4
:10440400E514F0A3E511F075120675130078121285
:104414000C76AC16AD17E5082402FAE50912434EF2
:10442400120A22850882850983A3A3A3A3A3A3A3B5
:10443400A3EEF08E127812120C76741A120A57E058
:10444400FCA3E0FDE5082409FAE50912434E120A2B
:1044540022E5082428F582E50912460FE510F00547
:104464000CE5082429F508E5093400F509850E82D0
:10447400850F83E0F8E50CC39850030243FEAA0AB3
:10448400AB0B9004870245629003F1E0A2E5400380
:104494000245659003E9E0A2E14003024565740C1E
:1044A400250DF50C7407250CFA12456A70030245B4
:1044B400651245C1F508EB3400F5091245B88508C5
:1044C40082850983E8F0A3E912457E1245FC124572
:1044D40077743E124577A3E50C12458B740212459E
:1044E4008BA3740112459EE51412459EA3E511F0B9
:1044F400750E06750F00780E120C76AC16AD178586
:104504000882850983E0240712434B120A22850896
:1045140082850983E0240D1245B3F08E0E780E12C5
:104524000C76741A120A57E0FCA3E0FD8508828514
:104534000983E0240E12434B120A22A80D85088237
:10454400850983E028F8A3E03400F9E8240EF58215
:10455400E912460FE510F0AA0AAB0B900485124647
:10456400187F10020B357B001201E18A0A8B0BEADB
:10457400450B2212457E12458622F0850882850964
:104584008322124602A32212458F2212457E12452F
:104594009622E0124607A3A3A32212458FA3A322C7
:1045A4001245A822F8A3E03400F9888289832212F4
:1045B40045A8EE22EA2404F8EB3400F9221245C59A
:1045C400221245C9228A828B837401F0A374FFF0FE
:1045D400EA2402228A828B8374911245E222F0A398
:1045E400743E12437AA3A3228A828B83A3A3A3A338
:1045F400E508F0A3E509F0221246027404221246EB
:104604000622E0F8A3E0F5838882223400F58322B1
:10461400FB900485E0F91201ED2274F7120A63ECB1
:10462400F8EDF97409120A57E0FCA3E0FD8019883B
:10463400828983E08A828B8312472CA882A9838A89
:10464400828B83A3AA82AB83ECFEEDFFEE24FF1CD6
:10465400EF34FFFDEE4F70D70248B5EEFAEFFB7F63
:1046640006020B3574F5120A63ECF8EDF9740B12BB
:104674000A5712485CAC08AD09EC24FFF508ED3488
:10468400FFF509EC4D602CEAFCEBFD8C828D83A3D5
:10469400AA82AB83E8FEE9FF8E828F83A3A882A956
:1046A400838C828D83E0FC8E828F83E06C60C6797C
:1046B40000800279017F03020B3574F6120A63E964
:1046C400FE8C088D097808120C768E08AC087D00E3
:1046D4001207277402120A220248BA74F6120A63F5
:1046E400EAFEEBFFEE4F70067A007B008037EE2483
:1046F40005FAEF3400FB1202478A088B09A808A9BF
:1047040009E84960E388828983E4F0A312472CA373
:10471400EEF0A3EF12472CA3A3A374FFF0E8240543
:10472400FAE93400FB0248BAF088828983A322C0E4
:1047340082C083EA4B7004790580161247C760046F
:104744007904800DEA24FBFAEB34FFFB12024D7965
:1047540000D083D08202013574F7120A637C000210
:1047640048B274F7120A63E9FEECFFEA4B7004796D
:1047740005804D9080EAE0F8EEC39840071201E707
:104784007903803C12495A124AE270051247C76005
:10479400051201E780D9EEF074016F700DEAFCEBAD
:1047A400FD7A817B02120205800BEAFCEBFD7A8123
:1047B4007B021201FF7A007B80EEF912021179006C
:1047C4000248B5EA24FFF582EB34FFF583E0F422D6
:1047D40074F2120A63890B750C00750D007E007F5C
:1047E40000A2AFE433F50AC2AF9002818015EE4F08
:1047F400700685080C85090DE50824FBF582E5099A
:1048040012496012485CE50845096023E50824FF65
:10481400F582E509124960E0650B70D2EE4F70062F
:10482400AE08AF0980D27A007B80120211800B7A25
:10483400007B80120217EE4F6015780C120C76EE96
:10484400FCEFFD7A817B0212020B7402120A22E54C
:104854000AA2E092AF02465FE0F508A3E0F5092260
:1048640074F7120A63A2AFE433FEC2AFEC24FBF583
:1048740082ED124960E4F0A3F0124ADE70098A82E4
:104884008B83800C12496F1248A08882898370F44C
:10489400ECF0A3EDF0EEA2E092AF8015E824FBF873
:1048A400E934FFF988828983124969EA4B221201AB
:1048B400F37F01020B357F02020B3574F7120A6392
:1048C400E5A8FEC2AF8A828B8312496FEC24FBF504
:1048D40082ED124960E8F0A3E9F08A828B83ECF060
:1048E400A3EDF0EEA2E702489C74F5120A63740B80
:1048F400120A5712496FA2AFE433F50AC2AFEC248F
:10490400FBFEED34FFFF8A828B8312485CEC650862
:104914007003ED65098E828F83700D12496F8A8250
:104924008B83E8F0A3E98010124965E824FBF58243
:10493400E9124960EAF0A3EBF08E828F83E4F0A3DE
:10494400F0EC24FFF582ED12496074FFF0E50AA251
:10495400E092AF0246B9EA24FBF582EB34FFF5831B
:104964002212496922E0FAA3E0FB22E0F8A3E0F96D
:104974002274F7120A63E9FD9080EAE0F8EDC39827
:104984005029E5A8FEC2AFEDC333F8E433F9900231
:1049940095E028FCA3E0398C82F583E04AF0A3E09B
:1049A4004BF0EEA2E792AF7900800279030248B59A
:1049B40074F7120A63E9FE9080EAE0F8EEC39850B7
:1049C4001FE5A8FFC2AFEAF4FCEBF4FDEE124ACAFD
:1049D400E05CF0A3E05DF0EFA2E792AF7900800223
:1049E40079030248B5E9F874FF687006C2AF79002C
:1049F40080027907020135C082C08312023B900213
:104A040081E4F0A3F012027112025312026B12023B
:104A1400417900024755C082C08312022F80FB7483
:104A2400F6120A637508001202351202FBE5081239
:104A34004ACA124AE2700D05089080EAE0F8E508D7
:104A4400C39840E99080EAE0F8E508C3985068E527
:104A5400A8FCC2AFE508C333FEE433FF900295E03F
:104A64002EF8A3E03FF988828983124965888289F8
:104A740083E4F0A3F0ECA2E792AFE50890048BF096
:104A8400F974402EF58274803FF583124AC1120AEC
:104A94006190048B74FFF0E5A8F9C2AF900295E031
:104AA4002EF8A3E03F8882F583E04AF0A3E04BF0C0
:104AB400E9A2E792AF80031202650248BAE0F8A3C4
:104AC400E0F583888222C333F8E433F9900295E059
:104AD40028FAA3E0398A82F583228A828B83E0F85C
:104AE400A3E0F9E84922C082C0839080C512093B43
:104AF400900299120947024C1374EE120A63890852
:104B04008A0A8B0B7412120A57780C12091D1202AE
:104B14007D8A108B11AE10AF11EE4F600E8E828F16
:104B240083A3A3780C12092C024BB97A0D7B0012D3
:104B340002478A108B11AE10AF11EE4F60738E8254
:104B44008F83A3A3A3A3A3A3A3A3E508F08E828FBB
:104B540083A3A3A3A3A3A3E50AF0A3E50BF08E828A
:104B64008F83A3A3780C12092C8E828F83E4F0A385
:104B7400F09080C512093B8E828F83A3A3A3A3A3C5
:104B8400A3A3A3A3120947124ED09002976017E083
:104B9400FAA3E08003E8FAE9FB8A828B83124ED3FE
:104BA40070F38A828B83EEF0A3EFF0EEFAEFFB80D2
:104BB400047A007B007F0A020B35C082C083900216
:104BC4009780048C828D83E0FCA3E0FDEC4D602390
:104BD4008C828D83A3A3A3A3A3A3E06A7003A3E0A1
:104BE4006B70E08C828D83A3A3A3A3A3A3A3A3E0F0
:104BF4006970D0ECFAEDFB8016C082C083EA4B608A
:104C04000E8A828B83A3A3A3A3A3A3E4F0A3F0D06F
:104C140083D08202013574F4120A63740C120A57A9
:104C2400780812091DE5A8FFC2AF7808120C7212A9
:104C340002777404120A228B09A909EFA2E792AF42
:104C4400EA4960047900800279087F04020B357414
:104C5400F2120A63740E120A57780812091DA2AFE1
:104C6400E433FFC2AF7808120C7212027774041294
:104C74000A22EA4B60128A828B83A3A3A3A3A3A371
:104C8400A3A3A3780812092CEFA2E092AFEA4B6029
:104C9400047900800279087F06020B3574F4120A45
:104CA40063A2AFE433F509C2AF12027D8A0A8B0B0B
:104CB400AE0AAF0BEE4F6003120283E509A2E09245
:104CC400AFEE4F6004790080027906024C4E74E81E
:104CD400120A6374FB120A0C8A088B098C0A8D0B66
:104CE4007401120A57780812092CE5A8F9C2AF908A
:104CF400029978081208CFE9A2E792AF124ED07059
:104D040003024EC6900297E0FEA3E0FF7512007501
:104D14001300750800750900A2AFE4338518828575
:104D24001983F0C2AFEE2402F510EF3400F511EE52
:104D34002402F50AEF3400F50B7403120A57124EDD
:104D4400D370207402120A57E070187401120A57C3
:104D5400E0F8850A82850B83E0C3984006E0C39897
:104D6400F080457401120A57C082C0838510828581
:104D74001183780C12091DD083D082780C1207524B
:104D840050177401120A57780C12091D8510828578
:104D94001183780C1208F6800F9080C512093B85A8
:104DA4001082851183120947EE2404F516EF3400AE
:104DB400F517850A82850B83124ED37057851682A8
:104DC400851783124ED37057EE2409F514EF34007F
:104DD400F515851482F583780C12091DE50C450D33
:104DE400450E450F60538E828F83124F3BEA4B6012
:104DF400488E828F83A3A3A3A3A3A3A3A3E0F91242
:104E0400021185148285158312093B851082851150
:104E140083120947850A82850B83124ED3700B8552
:104E24001682851783124ED3600F8E828F83A3A3BD
:104E3400A3A3A3A3124ED370258E828F83E0F8A37D
:104E4400E0F9E512451370059002978006851282F9
:104E5400851383E8F0A3E9F08E088F0980048E128D
:104E64008F138E828F83E0FEA3E0FF85188285195D
:104E740083E0A2E092AFE5084509603F850882859A
:104E84000983A3A3124ED3702B850882850983A3BB
:104E9400A3A3A3124ED3701C850882850983124FE5
:104EA4003B850882850983A3A3A3A3A3A3A3A3E0AB
:104EB400F9120211AA08AB0912024DEE4F60030267
:104EC4004D167405120A227F10020B35900297E0EA
:104ED400F8A3E0F9E8492274F0120A63124ED06094
:104EE40041900297124F41908091780812091D8ACF
:104EF400828B83A3A3780C12091D7808790C1207FE
:104F040042500C850C08850D09850E0A850F0B8A05
:104F1400828B83E0F8A3E0F9E8FAE9FBEA4B600A44
:104F240080CD9080C5780812091DAA08AB09AC0A87
:104F3400AD0B7F08020B35A3A3A3A3A3A3E0FAA39D
:104F4400E0FB22C082C08390029912093B024C13F9
:104F540074F7120A6374FF120A0CE9900343F08594
:104F640018828519837420F0AC82AD8379017A01AB
:104F74007B041203C17C327D007A027B0012049F01
:104F84007C327D007A037B0012049F7C007D007AD2
:104F9400237B0012049F900343E0F91202B37A00CA
:104FA40079031203797A017B00900343E0F912023A
:104FB4001175F10075F30C53FF3F43868043C50B15
:104FC40043C2D8C2E95386BF43A8847A4E7B801279
:104FD40004577401120A2202510274F4120A638AF9
:104FE400088B09EB54806063900343E0F91201F9E4
:104FF4008A0A8B0BA80AA90BE8FEE9FFE84960427C
:105004008E828F83E064C07032A3A3A3E0A2E05039
:105014002A900344E070157401F07A2F7B80120407
:10502400577B007A0079031203C7800F1203CD7AED
:105034001A7B80120457900344E4F0EEFAEFFB125B
:1050440001E7AA08E5096480FB8019EAA2E0501090
:105054007A897B801203BBE5086401FAAB098004FA
:105064007A007B007F04020B3574F7120A63EAFEB0
:10507400EBFF8E828F83A3A3E0600914604324F4C2
:10508400601980467A007B80120457EE2403FAEFFD
:105094003400FB12043912526D802F900344E060F7
:1050A40029EE240CF582EF3400F583E0F9EE240DAB
:1050B400F582EF3400F583E0FAA3E0FB120451809B
:1050C400097B007A0079031203C7803274F7120A4D
:1050D400639003457430F0A37478F078477903EA59
:1050E4002406FAEB3400FB7E06EA24FF1AEB34FFB5
:1050F400FB1251301EEE70F1E4F07A457B037F0120
:10510400020B3574F7120A63E978547903FF800DB2
:105114001251308A828B83A3AA82AB831FEF70F073
:1051240088828983E4F07A547B0380D28A828B83D9
:10513400E0C4125149A882A9838A828B83E0125168
:105144004908A98322540FFC748F2CF5827404340B
:1051540000F583E088828983F0A32274EC120A6349
:105164008A0C8B0D8C0E8D0F7CB47D038A108B11F1
:10517400850E12850F139080A5780812091D7810EA
:105184007908120801E50824309003A4F07AA57B7D
:10519400038029850C08850D09850E0A850F0B905F
:1051A40080A5781012091D78087910120801E510FD
:1051B40024308A828B83F0A3AA82AB839080A57863
:1051C4000812091D780C7908120801E50C450D45F3
:1051D4000E450F70BEC374A49A74039B5019EA243D
:1051E400FF1AEB34FFFB8A828B83E08C828D83F081
:1051F400A3AC82AD8380DE8C828D83E4F07AB47BB1
:10520400037F0C020B3574F0120A63EAFEEBFF8C89
:10521400088D097410120A57E0F50EA3E0F50F7417
:1052240012120A57E0F50AA3E0F50B1202A71204C2
:1052340045120457750CE8750D80AA0CAB0D1204C9
:10524400577910EEFAEFFB125278AA08AB09125202
:1052540078AA0EAB0F12527E7901AA0AAB0B120484
:105264003F12526D7F08020B351204577AE57B809A
:105274001204572212527E79022212043F1204575A
:10528400AA0CAB0D1204572274EA120A63EAFEEB6D
:10529400FF8908EE2508F8EF3400F9E824FFF5103B
:1052A400E934FFF5118008EE2508FEEF3400FFC352
:1052B400EE9510EF951140030253738E828F83E0B5
:1052C400F508A3AE82AF8360E6E0F470DAEE24035F
:1052D4000E0E0EEF3400FFEE2402F50CEF3400F551
:1052E4000DEE2412F50AEF3400F50BEE2414F51438
:1052F400EF3400F515EE2416F512EF3400F5138E95
:10530400828F83A38582088583098E828F83E064DC
:10531400027025850882850983E0641570917812EE
:10532400120C767814120C76AC0AAD0BAA0CAB0DE9
:1053340012044B7404120A228E828F83E064BE60CE
:10534400030252B3850882850983E064AC600302DA
:1053540052B37812120C767814120C76AC0AAD0B98
:10536400AA0CAB0D12044B7404120A220252B37F2E
:105374000E020B35C082C083800DF5C1A3AA82AB97
:1053840083A2E950FCC2E98A828B83E070ECD0836B
:10539400D082020135C082C0837A00790F1203796A
:1053A40043FE0143FE0243FE1002573E74F5120A07
:1053B4006389088A0AEA602F14602C14600A24FEA8
:1053C400601B24FC6021800B7CE87D037B057A0153
:1053D40012037F9002CFE0F97F03020B357CE87D56
:1053E400037B057A3280E975090153080F7ED27F69
:1053F40002801DE06401F0E0FAA90912038BE509BB
:105404006208E509C333F509EE2409FEEF3400FF11
:10541400E50860BF550960EA7408650A8E828F83C7
:1054240060D1E50A80D074F2120A63890A8A0B8B70
:105434000CECFEEDFFE970030254FBEB7003025425
:10544400FBEE4F70030254FBEBC39464400302541D
:10545400F7750D01530A0F7508D275090280765548
:105464000D605E850882850983E0C39402500D9027
:1054740002CFE0550DF89002D1E048F0850882850E
:105484000983E4F0A3A3A3EEF0A3EF125505A3E56B
:105494000C125505E50BF0700985088285098374A3
:1054A40004F01202A7850882850983A3A3A3A3A3FA
:1054B400120947850882850983E0D2E1F0E50D628F
:1054C4000AE50DC333F50DE5082409F8E5093400B0
:1054D400F988088909E50A70867A207B009002C75A
:1054E400E0F91202957A207B009002C7E0F91202DB
:1054F4001180097A0180027A001203797F06020B77
:1055040035F0850882850983A32274E8120A63743E
:10551400FF120A0C75140075150075160175170F26
:105524007ED27F029002F6E060030256DBE5175557
:105534001670030256A58E828F83E0A2E140030217
:1055440056A11202A78A0C8B0D8C0E8D0F8E828FA2
:1055540083A3A3A3A3A3780812091D7808790C12C6
:10556400074250030256778E828F83A38582088573
:1055740083098E828F83E0A2E05032A3A3E0F87403
:1055840064C398851882851983F08E828F83E0C264
:10559400E0F07A00A91612038B8E828F83E0A2E2D8
:1055A400403E850882850983E014F08033850882B3
:1055B400850983E0700D8E828F83E0A2E24004644B
:1055C4000280E78E828F83A3A3E0851882851983E6
:1055D400F08E828F83E0D2E0F07A01A91612038B59
:1055E4008E828F83E0A2E15065851882851983E05D
:1055F400F508E4F509F50AF50B8E828F83A3A3A3BE
:10560400E0F510A3E0F511E4F512F513780879102C
:1056140012078190808D781012091D780879101274
:105624000801850810850911E4F512F513780C7941
:10563400101208A98E828F83A3A3A3A3A3E50CF061
:10564400A3E50DF0A3E50EF0A3E50FF08032750895
:10565400007509009002D1E0551660047A018002B9
:105664007A00A91612037974FF6516F89002D1E046
:105674005880D8E508C3950CF508E509950DF5099A
:10568400E51445156011E50845096011C3E5089561
:1056940014E50995155006850814850915E5166263
:1056A40017E516C333F516EE2409FEEF3400FFE5C3
:1056B400176003025531E5144515601BE4F516F532
:1056C400177814120C727A207B009002C7E0F9124A
:1056D40002897404120A227401120A227F10020B36
:1056E40035C082C083E9A2E0500B74016A7004D211
:1056F400908002C290E9A2E1500B74016A7004D256
:10570400918002C291E9A2E2500B74016A7004D242
:10571400948002C294E9A2E3500B74016A7004D22B
:10572400908005C290EA60079002CFE04980097436
:10573400FF69F89002CFE05880049002F6E4F0D0BC
:1057440083D082020135C082C0839002F67401F0D6
:10575400E590FBE590F8E590F9E590FAE8A2E150D0
:1057640004D2F08002C2F0E9A2E45004D2F1800233
:10577400C2F1EAA2E0E433333333FAA2F1E433337F
:1057840033F9A2F0E43333F8EBA2E0E43348494AB6
:105794009002D0F07A00790F12038B80A2C082C0ED
:1057A400837A019002D0E0F912038B120385025729
:1057B4003EA2AFE433F8C2AF5394FEE594A2E240B4
:1057C400FAE8A2E092AF75A70075A100759CFF7579
:1057D400C30075A20075A30075A40075A50075A685
:1057E4000075C31175A20075A30075A40075A5000A
:1057F40075A60075C33375A20075A30075A4007562
:10580400A50075A60075C34475A20075A30075A410
:105814000075A50075A60075C32275A22075A34E58
:1058240075A40075A50075A600759408A2AFE433AD
:10583400F8C2AF439401E594A2E250FAE8A2E092E0
:10584400AF439402020135A2AFE433F8C2AF5394DC
:10585400FEE594A2E240FAE8A2E0025A6CA2AFE4A8
:1058640033F8C2AF439401E594A2E250FA80E8E829
:10587400A2E792AF0258CDE5A4851882851983F07A
:10588400E5A5C0E07401120A57D0E0F0E5A6C0E037
:105894007402120A57D0E0F07403120A57E4F0E8D5
:1058A400A2E792AF85188285198312093B7404120A
:1058B4000A22D083D082020135E8A2E792AF85188C
:1058C40082851983E0FAA3E0FB740280E2F59CE888
:1058D400A2E792AF0258B1C082C08374FC120A0CD2
:1058E400851882851983EAF0A3EBF0A3ECF0A3ED0D
:1058F400F0E5A8F8C2AF53A7BF75C33385188285F6
:105904001983E0F5A47401120A57E0F5A574021294
:105914000A57E0F5A67404120A57E0F5A2740512BA
:105924000A57E0F5A375A1BF43A74080A2C082C077
:105934008374FE120A0C851882851983EAF0A3EB9E
:10594400F0E5A8F8C2AF53A7FD75A1FD75C30385A3
:105954001882851983E0F5A27401120A57E0F5A3B1
:10596400E59C54F04401F59C025873C082C08374D2
:10597400FC120A0C851882851983EAF0A3EBF0A3C4
:10598400ECF0A3EDF0E5A8F8C2AF53A7BF75A1BF33
:10599400439C0F75C333851882851983E0F5A4747D
:1059A40001120A57E0F5A57402120A57E0F5A6742D
:1059B40004120A57E0F5A27405120A57E0F5A3E5AC
:1059C4009C54F044080258D174F4120A6374FC1213
:1059D4000A0C851882851983EAF0A3EBF0A3ECF096
:1059E400A3EDF0A2AFE433F9C2AF53A7DF75A1DF93
:1059F400851882851983C082C083908085780812B7
:105A0400091DD083D082780812072D7005439CF0BD
:105A1400802475C340851882851983E0F5A4740138
:105A2400120A57E0F5A57402120A57E0F5A6E59CA0
:105A3400540F4450F59CE9A2E092AF7404120A2278
:105A44007F04020B35E5A8C2AF53A7098015E5A86A
:105A5400C2AF53A709759CFF8009E5A8C2AF439C58
:105A64000F800375A109A2E792AF020135A3A3A396
:105A7400E4F0E8A2E792AF0258B6C082C08374FC97
:105A8400120A0CE5A8F8C2AF75C300E5A202587B60
:105A9400C082C083E5A8F8C2AF75C300E5A28A82BC
:105AA4008B83A3A3A3A3F0E5958C828D83F0E5A358
:105AB4008A828B83A3A3A3A3A3F0E5A48A828B8306
:105AC400F0E5A5A3F0E5A68A828B83A3A3F08A82DE
:105AD4008B83A3A3A3E4F0E5968C828D83A3F0E5E6
:105AE400978C828D83A3A3F08C828D83025A71C01C
:105AF40082C08374FE120A0CE5A8F8C2AFE5C3F9AC
:105B040075C300E5A2E5A4851882851983F0E5A58F
:105B1400C0E07401120A57D0E0F089C30258BDC036
:105B240082C083C3EA9426EB9400501674FF6C7011
