:020000040000FA
:0600000002011D020F1FAA
:03002B0002147A42
:0300330002145C58
:03005300020F9207
:03006B0002143349
:10008300020DD3E5C754F84401F5C77901220000F6
:100093000080FB120086B90003020107E4791B7894
:1000A30002B800028004F709D8FCE4791D7802B88D
:1000B30000028004F709D8FCE490028178DD79021C
:1000C3008002F0A3D8FCD9FA781A90014D7A01BACC
:1000D30000028007E493A3F608DAF990045DAA828C
:1000E300AB8390014E787179018015E493A3AC82C0
:1000F300AD838A828B83F0A3AA82AB838C828D83A8
:10010300D8E9D9E77582BF758376740012012F751C
:100113008291758300740012012F75D00075813FA1
:10012300751881751902759F00020096C09FF59F8F
:10013300E473D09F22D083D082C09FE493C0E07445
:100143000193C0E0740293F59F2201D001DC01FF0B
:100153000000B4000028002800283075A000A0008B
:10016300A000A00000080008E001F000100010004B
:10017300100010001000100050005000500010003C
:100183001000D0070000000000000F000100050070
:10019300307507001000010081FF0000FF200320DD
:1001A3000320032003200320032003200320032034
:1001B30003200320032003FFFFFF00120138A014D4
:1001C300001201387B1500120138A91500120138FD
:1001D300291600120138671600120138CF160012D3
:1001E30001386017001201382B18001201383A1B2E
:1001F30000120138A61C00120138C91C0012013874
:100203004960001201387160001201389F600012CA
:100213000138DC6000120138256100120138776172
:1002230000120138A561001201384C620012013836
:100233005C74001201387474001201381B650012DB
:100243000138266500120138386500120138166638
:10025300001201381B6600120138026700120138D0
:100263000E69001201383E690012013876690012E6
:100273000138B069001201381B6A00120138646A40
:10028300001201388E6A00120138B36A0012013875
:100293008C4800120138BF48001201389D490012F2
:1002A3000138C249001201383F4B00120138CE2BEE
:1002B30000120138A92D001201384E2E0012013808
:1002C300D32E001201382C2F001201382E300012C9
:1002D30001388625001201381D26001201384A26EE
:1002E30000120138902600120138B8270012013895
:1002F3004F2900120138C42900120138152A0012AF
:100303000138802B00120138A42B001201384D6FE5
:1003130000120138596F001201383B700012013886
:100323008578001201384F4300120138FB43001255
:100333000138C94400120138F3440012013841471F
:10034300001201380A32001201382F32001201382C
:100353007C3400120138FB35001201383C3700129F
:100363000138AD3700120138EA37001201380D3871
:10037300001201382338001201383D5600120138AB
:10038300D35600120138E9560012013863570012A0
:100393000138B95700120138F75700120138545881
:1003A30000120138D15800120138DA58001201380E
:1003B300E658001201380659001201381C59001280
:1003C30001387B59001201382C38001201383938B2
:1003D30000120138533800120138923800120138E4
:1003E300F738001201380C39001201382339001292
:1003F30001383139001201384039001201385539BA
:10040300001201386A3900120138753900120138B7
:10041300843900120138A73900120138503A00120A
:100423000138653A001201387F3A001201389A3ACE
:1004330000120138B73A00120138C23A00120138EB
:100443007E3B001201386A3C001201388F3C0012D7
:100453000138993C00120138AD3C00120138CC3C04
:10046300001201382D3D00120138393D00120138C8
:100473006C3D001201385476001201388076001268
:100483000138AD7600120138011E001201380B1E2F
:1004930000120138551E00120138AB1E001201383C
:1004A300CC1E001201387B2100120138CF2100122B
:1004B3000138F8210012013802220012013870229B
:1004C300001201380023001201385B2300120138A7
:1004D300892300120138112400120138502400121C
:1004E3000138852400120138972400120138B624FC
:1004F30000120138BF240012013883720012013840
:100503001567001201384B67001201387F6700122C
:100513000138CC6800120138BE7500120138D47559
:1005230000120138DE7500120138287600120138F6
:10053300607700120138B74D00120138CA4D00121E
:1005430001388B4E00120138CA4E00120138E74EB3
:1005530000120138204F001201386D4F001201388C
:100563009F4F00120138A851001201381452001293
:100573000138E86D00120138126E00120138AA6EBC
:1005830000120138C26E00120138046F00120138E4
:100593003178001201380D75001201381E750012F2
:1005A3000138177700120138567700120138747832
:1005B300001201387A73001201388A73001201386D
:1005C300A2730012013856740012013881710012AF
:1005D30001380672001201386A7200120138DB6AB0
:1005E30000120138046B001201386A6B00120138E3
:1005F3008A6B00120138DB6B00120138366C001273
:100603000138706C00120138736C00120138FB5C06
:1006130000120138105D00120138315E00120138FA
:10062300B45E00120138285F00120138425F0012E5
:100633000138555F00120138635F001201387D5F96
:1006430000120138945F00120138BE5F00120138B6
:10065300146000120138215200120138385200127E
:100663000138B252001201389653001201386D5509
:1006730000120138D25500120138295600120138F0
:10068300F87F00120138E162001201387164001230
:100693000138D264001201381865001201387D6CEC
:1006A30000120138BA6C00120138E96C00120138EB
:1006B3002A6D00120138396D00120138486D00129D
:1006C30001387B7000120138A57000120138E93D32
:1006D30000120138B53E00120138FD3E0012013808
:1006E3005B3F00120138AF3F001201380D4000128A
:1006F3000138A340001201382D4200120138CB42C9
:1007030000120138324300120138AB59001201388C
:100713000B5A00120138785A001201380C5B001290
:100723000138795C00120138DC7700120138A677B2
:1007330000120138097800120138567800E066701B
:100743001008A3E066700A08A3E066700408A3E03B
:100753006622C3E7960809E7960809E7960809E7BA
:100763009622C3E09608A3E09608A3E09608A3E0C8
:100773009622C008C3E096F50808A3E0964208084D
:10078300A3E096420808A3E09645087001D3D00879
:1007930022080808EAC0E0EBC0E086F0E7A4FA18F4
:1007A3000986F0E7A42AFA180986F0E7A42AFA18BA
:1007B3000986F0E7A42AFA1986F0E7A4FBE5F02AF4
:1007C300FA190886F0E7A42BFBE5F03AFA19088634
:1007D300F0E7A42BFBE5F03AFA18180986F0E7A432
:1007E300C5F02BFBE43AFA1908E7C5F0C6A426F6D0
:1007F300E5F03BFBE43AFA1886F0E7A4F6E5F008E7
:1008030026F6E43B08F6E43A08F6D0E0FBD0E0FA3B
:1008130022E4CFC0E0E4CEC0E0E4CDC0E0E4CCC04D
:10082300E075F020C3E633F608E633F608E633F660
:1008330008E633F6181818EC33FCED33FDEE33FEFF
:10084300EF33FFC3EC9709ED9709EE9709EF97197B
:100853001919400FFFEC97FC09ED97FD09EE97FE80
:10086300191906D5F0BEECF709EDF709EEF709EF14
:10087300F7191919D0E0FCD0E0FDD0E0FED0E0FF7D
:10088300226016080808C6C313C618C613C618C6BE
:1008930013C618C613C6D5E0EA2270090808082251
:1008A3006016181818C6C333C608C633C608C6333D
:1008B300C608C633C6D5E0EA22E627F60809E637B6
:1008C300F60809E637F60809E637F622E026F608C1
:1008D300A3E036F608A3E036F608A3E036F622E0F6
:1008E30026F008A3E036F008A3E036F008A3E036CC
:1008F300F022C3E697F60809E697F60809E697F6A5
:100903000809E697F622C3E096F008A3E096F008FC
:10091300A3E096F008A3E096F022E056F608A3E0E1
:1009230056F608A3E056F608A3E056F622E0F608CA
:10093300A3E0F608A3E0F608A3E0F622E6F008A396
:10094300E6F008A3E6F008A3E6F022E0FAA3E0FB52
:10095300A3E0FCA3E0FD22EAF0A3EBF0A3ECF0A3F9
:10096300EDF022CAC0E0E6F0A308DAFAD0E0FA22FA
:10097300CAC0E0E0A3C582CCC582C583CDC583F0E0
:10098300A3C582CCC582C583CDC583DAE6D0E0CAD0
:1009930022B90010BB0008E88AF084F8AAF022E428
:1009A300FBC8FA22EB70227B10C833C8C933C933A2
:1009B3005007C39AC3DBF280069A50012ADBEAC8C8
:1009C30033F4C8C933F4C9FA2275F008E4C833C84C
:1009D300C933C933C99AC99B5004C92AC93BD5F045
:1009E300ECFBC833F4C8E4C9FA22600D08C6A2E7D9
:1009F30013C618C613C6D5E0F322600C08C6C3138A
:100A0300C618C613C6D5E0F422700422600D18C6BA
:100A1300C333C608C633C6D5E0F41822251810AF71
:100A230008F518400215198008F51840021519D267
:100A3300AF22C0D0251810AF08F518500205198051
:100A430008F51850020519D2AFD0D0222518F58227
:100A530010AF08F518400215198008F51840021563
:100A630019D2AF851983222518F582E43519F58348
:100A730022E4732518C582C0E0E51934FFC583C09D
:100A8300E0E518C3958224F810AF088583198582A1
:100A9300188008858319858218D2AFCEF0A3E5208C
:100AA300F0A37808E608F0A3DEFAEFF0A3E58124CB
:100AB300FAF8E608F0A3E608F0A3E608F0A30808AE
:100AC300E608F0A3E608F0A315811581D0E0FED077
:100AD300E0F8158115811581E8C0E0EEC0E022251C
:100AE30018C582C0E0E51934FFC583C0E0E518C32B
:100AF300958224F910AF08858319858218800885AB
:100B03008319858218D2AFCEF0A3E520F0A378082D
:100B1300E608F0A3DEFAEFF0A3E58124FBF8E6088C
:100B2300F0A3E608F0A30808E608F0A3E608F0A39C
:100B330015811581D0E0FED0E0F815811581E8C05C
:100B4300E0EEC0E022851983851882E0A3FEE0A3CE
:100B5300F5207808E0A3F608DFFAE0A3FFE0A3C0DE
:100B6300E0E0A3C0E0E0A3C0E0E0A3C0E0E0A3C0F6
:100B7300E010AF088582188583198008858218855F
:100B83008319D2AFD083D0820201358519838518AA
:100B930082E0A3FEE0A3F5207808E0A3F608DFFADD
:100BA300E0A3FFE0A3C0E0E0A3C0E0E0A3C0E0E077
:100BB300A3C0E010AF088582188583198008858259
:100BC30018858319D2AFD083D08222C0D02518C50F
:100BD30082C0E0E51934FFC583C0E0E518C3958200
:100BE30024F310AF0885831985821880088583193B
:100BF300858218D2AFC8F0A3E9F0A3EAF0A3EBF023
:100C0300A37908E709F0A3D8FAECF0A3EDF0A3EE7B
:100C1300F0A3EFF0A3D0E0F0A3D0E0F0A3D0E0F096
:100C2300A3E520F0A3E5F0F0A322851983851882BC
:100C3300E0C0E0A3E0F9A3E0FAA3E0FBA37808E0B7
:100C4300F608A3DFFAE0FCA3E0FDA3E0FEA3E0FFC8
:100C5300A3E0C0E0A3E0C0E0A3E0F5D0A3E0F5206B
:100C6300A3E0A3F5F010AF088583198582188008E7
:100C7300858319858218D2AFD082D083D0E0F8D093
:100C8300E03274048006740280027401C0E0F4044C
:100C9300120A4FD0E01209662274048004740280A1
:100CA30000CCC0E0EDC0E0E518C39CCCAD19500109
:100CB3001D10AF068C188D1980068C188D19D2AFB4
:100CC300120973D0E0FDD0E0FC22D083D082E9C0CA
:100CD300E0E493A3C386F0C5F095F0F908E493A389
:100CE30086F0C5F095F0700BE493A3C3994005E932
:100CF300048002A3E475F002A42582F582E5F035B1
:100D030083F583D0E0F9E493A3C0E0E493C0E02249
:100D1300D083D082ECC0E0EDC0E0E493A3FCE49385
:100D2300A3FDED4C600D120D5FEC24FFFCED34FFD1
:100D3300FD80EFE493A3FCE493A3FDED4C600D125F
:100D43000D9EEC24FFFCED34FFFD80EFD0E0FDD0E1
:100D5300E0FCE493A3C0E0E493C0E022C0E0C3E47A
:100D63009396087401939618400FE49366700808ED
:100D7300740193661870007019A3A3C3E4939608D3
:100D83007401939618A3A3400DD0E0D0E0D0E00205
:100D93000D4FA3A3A3A3A3A3D0E022C0E0C0F08878
:100DA300F0E4936670080874019366187000A8F065
:100DB300A3A3700BD0F0D0E0D0E0D0E0020D4FA39E
:060DC300A3D0F0D0E022F5
:100DCC00851B87851CC622C0E0C0D0E8C0E0E9C006
:100DDC00E0EAC0E0EBC0E0ECC0E0EDC0E0C008C071
:100DEC0009C00AC00BC082C083C0F0759B00906123
:100DFC0082E0A2E64003020EB1E591A2E6400302B6
:100E0C000EB17591BF9002C2E0640570081203A484
:100E1C001203B080031203AA751B00120404E9909C
:100E2C0002C3F079001203E61202E47A017B00900F
:100E3C0002C1E0F91204D6907803E0644260030228
:100E4C000EFA9002FEE014F06003020EFAC2AF122A
:100E5C000E5E00781ED0E0F618D0E0F6E59F540741
:100E6C00F970059080B780039080B3780812093030
:100E7C00E9C4C0E0781DE65508F50808E65509F503
:100E8C0009740B78081209FDD0E02508F8906270FF
:100E9C00E0A2E740F8E8C333906272F0906270E031
:100EAC00D2E0F08049E0A2E55024E591A2E5501E85
:100EBC007591DF9002C2E0640D70139002D8E004CB
:100ECC00F064287002E4F07A00E0F912046A906190
:100EDC0081E0A2E35009E5E9A2E3500375E9F7A329
:100EEC00E0A2E75009E591A2E7500375917FD0F09D
:100EFC00D083D082D00BD00AD009D008D0E0FDD05E
:100F0C00E0FCD0E0FBD0E0FAD0E0F9D0E0F8D0D0B3
:100F1C00D0E032C0E0C0D0C082C083906183E0A238
:100F2C00E05009E5BFA2E0500375BFFEE0A2E1501E
:100F3C0009E5BFA2E1500375BFFDE0A2E25009E54F
:100F4C00BFA2E2500375BFFBE0A2E35009E5BFA2CC
:100F5C00E3500375BFF7E0A2E45009E5BFA2E450EB
:100F6C000375BFEFE0A2E55009E5BFA2E55003759C
:100F7C00BFDFE0A2E65009E5BFA2E6500375BFBF94
:100F8C00D083D0828088C0E0C0D0E8C0E0E9C0E067
:100F9C00EAC0E0EBC0E0ECC0E0EDC0E0C0F0E5A7DB
:100FAC00A2E6500FE5A1A2E6500953A7BF75A1BF59
:100FBC00120FF7E5A7A2E5500CE5A1A2E5500653E8
:100FCC00A7DF75A1DFE5A7A2E15009E5A1A2E150D9
:100FDC000375A1FDE5A7A2E2500CE5A1A2E2500623
:100FEC0053A7FB75A1FBD0F0020F0874F8120AE2AC
:100FFC00751B019002C2E0640670151203688A82A8
:10100C008B83A3A3A3A3A3A3E0FAA3E0FB120392F5
:10101C00A2AFE433FED2AF9002C8E0640170187A3C
:10102C00207B009002C1E0F912055A7A207B0090D7
:10103C0002C1E0F91204DC906182E0D2E6F0900289
:10104C00FDE0602185C61C80169002C7E06401702B
:10105C0008E5C654F84405F5C653BEFC120DCC7415
:10106C0001651B60E4EEA2E092AF7F01020B8E746F
:10107C00EB120AE274FA120A1F8A088B098C148D7F
:10108C00159002C2E024F7C3940550069081130218
:10109C0011DD1203688A0A8B0BAE0AAF0BEE4F7090
:1010AC00030211DAAC08AD09851882851983AA826E
:1010BC00AB831203BC8E828F83A3A37808120930F2
:1010CC009080CB780812091D851882851983780CBD
:1010DC001209309080CB780C12091D7808790C120B
:1010EC000755501F7808790C1208F59080A77808DE
:1010FC001207754047850810850911850A12850B62
:10110C00138041850C10850D11850E12850F1378F7
:10111C001079081208F59080A77810120775501CEA
:10112C007510007511007512007513017810790C8B
:10113C001208F5781079081208BC80089081137891
:10114C00101209307409781012089D9080DF78080D
:10115C00120930781079081208148E828F83A3A399
:10116C00A3A3A3A3E0F8A3E0F97AD07B031209941C
:10117C0088088909E4F50AF50B781079081208BC7F
:10118C007404120A6AE0F8A3E0F97AD07B0312091E
:10119C0094E8FA8A08E4F509781079081207555092
:1011AC0007781079081208F59002C2E06408600A0A
:1011BC00E064066005E06405701C9080AB7810124A
:1011CC00077550129080AF78101208CF800890806D
:1011DC00D378101209308514828515837810120982
:1011EC003F7406120A357F0E020B8E74F7120AE258
:1011FC001203CE9002FBE064017010906245E4F0A3
:10120C00A3F053F4F343FE0C5390F3120380E5C6A2
:10121C0054804449F5C6E59E547F644970F890614A
:10122C0085740FF09002F9E0F47002A3E0604E9028
:10123C0002FAE0600814601B14602E8040750801EF
:10124C007509009002F9E07808120A0CE508F452CE
:10125C0080802A7508017509009002F9E07808125F
:10126C000A0CE508F4529080147508017509009079
:10127C0002F9E07808120A0CE508F452A079007F14
:10128C0002020B8E74F7120AE2E9FEEAFF74016E99
:10129C00700C7A807B009002C1E0F91204D6901495
:1012AC0098E493F46008E493F91202D8800953C6C9
:1012BC0080E59E547F70FA1203869002FBE0640175
:1012CC0070031202F09002F9E0F47002A3E0604B9C
:1012DC009002FAE0600814601A14602C803D7508C6
:1012EC00017509009002F9E07808120A0CE5084231
:1012FC008080287508017509009002F9E0780812C1
:10130C000A0CE508429080137508017509009002DB
:10131C00F9E07808120A0CE50842A01203CE120379
:10132C00688A088B09A808A909E8496015E5E170E5
:10133C00FCE82414F582E93400F583E0F46003E062
:10134C00F5E174016F700A7A019002C1E0F912059F
:10135C002402128B74F1120AE28A088B098C0A8D12
:10136C000B740F120A6A780C1209309080CB780833
:10137C0012091D9080CB780C12091D7808790C127B
:10138C00075550157808790C1208F59080A7780845
:10139C00120775401579018013780C79081208F53D
:1013AC009080A7780C12077540EB79007F08020B30
:1013BC008E74ED120AE28A088B098C0A8D0B741359
:1013CC00120A6A780C1209309080CB780812091D29
:1013DC009080CB780C12091D780C790812075540B7
:1013EC00117808790C1208F5AA08AB09AC0AAD0BF8
:1013FC00802275100075110075120075130178109C
:10140C00790C1208F5781079081208BCAA10AB11E7
:10141C00AC12AD137F0C020B8EC082C083E99060BE
:10142C0000F0D083D08222C0E074F2120BCEA2AFB7
:10143C00E433FED2AFE589A2E150031205FC7589B5
:10144C0000C2C5751A00EEA2E092AF7F01020C2D0E
:10145C00C0E074F2120BCEA2AFE433FED2AFE58B38
:10146C00A2E050031205FC758B00C2E880D5C0E0E9
:10147C00C0D0E8C0E0E5A8D2AFC2C7751A00A2E799
:0A148C0092AFD0E0F8D0D0D0E032EB
:10149800FFFFFFFFFFFFFFFF74F4120A76EAFEEB7F
:1014A800FF12157060057911021569900284E054E5
:1014B8000A700579120215697A047B0012050C90EE
:1014C800029DEAF0A3EBF012157070030215677520
:1014D80008047509007808120C89EEFCEFFD9002EB
:1014E8009D121DEB120A3512024EE960097A0C12A0
:1014F80016C57A0D801A8E828F83A3E06402700964
:101508007A121216C57A1380077A101216C57A1144
:101518007B001202068A0A8B0BAC0AAD0B8E828FF7
:1015280083A3A3A3E0600478018002780090028579
:10153800E07004790080027901E8F50A780A120C53
:101548008DE9F50A780A120C8DAA08AB098E828FEC
:1015580083A3A3E0F912026C7402120A358002799F
:10156800137F04020B48E9FE90029DE0F8A3E0F91E
:10157800E8492274F7120A7612156E7004791280FF
:101588001B1216626E6004790380117A017B009049
:10159800029FE0F912055A79301217577F01020BA2
:1015A8004874F7120A7689087A01900283E0F912E2
:1015B80001E2900284E0540A6058E508900283F042
:1015C8007A5D7B0412025A900281121573703F9063
:1015D8000283E0604775F00CA4FEAFF0FAEFFB124F
:1015E800050C900281EAF0A3EBF0900281121573CA
:1015F800601CEEFCEFFD790012049A7B00900283D8
:10160800E0F8EBC3985015EB1217FC0B80EF791339
:10161800800C900283E4F0FAFB12025A790002155A
:10162800A474F6120A7679018A088B097808120CD4
:10163800CD0B2001501647164216121656600A1294
:101648001656F91201D68001197F02020B488C82C6
:101658008D83A3A3A3A3A3E0F8A3121B2BE02274FA
:10166800F4120A7612156E604FEE7034121B2BA31B
:10167800E0640270047A0380027A021216C5E4F567
:101688000AF50B7808120C857A017B0090029FE01E
:10169800F912054E7404120A3579011201F4E9FEB3
:1016A800EE60117A017B0090029FE0F912055AEE74
:1016B800F91201EE7901800279000215697B0012A6
:1016C80002068A088B092274F4120A76EA4B700C17
:1016D800121570607779001217578070EA2403F5A5
:1016E80008EB3400F509850882F583E0605E8A829C
:1016F8008B83A3A3A3A3E0FEA3E0FFEE4F604D7A84
:10170800247B00120206EAF50B750A008030EE24ED
:1017180028F582EF3400F583E0C3950BA2D265D09B
:10172800334011EEFAEFFB1201E8E96007EEFAEF39
:10173800FB1201FAEE2429FEEF3400FF050A8508A2
:1017480082850983E0F8E50AC39840C20215691248
:1017580001EE79001201F42274F5120A7689088ADA
:1017680009900281121573607A750A00802FE50AC4
:1017780075F00CA4FEAFF01217F0240812180360DD
:1017880007121812E4F0A3F01217F0240A12180333
:101798006009121812A3A3E4F0A3F0050AE50AC32E
:1017A800950840CAE509900281600C121C879002D6
:1017B80081E4F0A3F0802C1215736027E50875F01A
:1017C8000CA4FCADF07900900281121C8E12049AD0
:1017D800750A008007E50A1217FC050AE50AC39591
:1017E8000840F27F03020B48900281E02EF8A3E044
:1017F8003FF9E822121C6674FFF022F8E93400F978
:1018080088828983121C8EEA4B221205129002816B
:10181800E02EF8A3E03F8882F583A3A3A3A3A3A3A4
:10182800A3A32274E8120A7674FF120A1FEAFEEBD9
:10183800FF7508007A007B001215707005790002A8
:101848001B1BEE2408F50AEF3400F50BEE2409F50E
:1018580012EF3400F5138E828F83E06401603478D0
:1018680012120C89850A82850B83E0FC7402120A25
:101878006AAA82AB8379011202367402120A35EA27
:101888004B60078A828B83E0F5088E828F83E06441
:10189800046031121B25A3E0F87403686026E87021
:1018A80004E508601FEA4B609474016870087403CB
:1018B8005508701080877402687082E508A2E040BD
:1018C800030218458E828F83A385820E85830FEECF
:1018D8002402F50CEF3400F50DAA0CFBE0F9120216
:1018E8001EE9F8850E82850F83F0850C16850D1785
:1018F8008811900281121573606B751000800205C3
:1019080010900283E0F8E510C3985059E51075F07F
:101918000CA4F508E5F0F509900281E02508FAA382
:10192800E03509FB8A828B83E0F460D3A3E065117C
:1019380070CD7514067515007814120C89AC16ADA7
:1019480017EA24020A0AEB3400FB12049474021208
:101958000A35E960AA900281E02508F508A3E03578
:1019680009F50980067508007509008E828F83E0E5
:10197800FAE50845097003021A34E508240AF50E49
:10198800E5093400F50FE5082408F50CE5093400ED
:10199800F50D74046A600C850C82850D83E0FAA34A
:1019A800E0800E850E82850F83E0F8A3E0F9E8FA5F
:1019B800E9FBEA4B7003021A9C850A82850B83E0D7
:1019C800F5148A828B83E0651470257515007814E8
:1019D800120C89AC12AD138A828B83A3AA82AB83C3
:1019E8001204947402120A35E9640170030218455E
:1019F8008E828F83E06404601D850C82850D8312BE
:101A0800180C7003021A9C120512850C82850D832E
:101A1800E4F0A3F0807E850E82850F8312180C6097
:101A280073120512850E82850F8380E474046A7030
:101A380003021845900281121573602B7C00800107
:101A48000C900283E0F8ECC398501CEC75F00CA4E1
:101A5800F8A9F0900281E028F8A3E039F988828992
:101A680083E0F470DB800675820075830085820848
:101A7800858309E50845097003021845EAF0850ED3
:101A880082850F83121C94120C89AC0CAD0D121DAB
:101A9800CA120A35850A82850B83E02401FAE434E8
:101AA80000FB12050CEA4B605C8E828F83E06404B5
:101AB8006014850882850983A3A3A3A3A3A3A3A372
:101AC800EAF0A3EB8018EAF8EBF985088285098328
:101AD800A3A3A3A3A3A3A3A3A3A3E8F0A3E9121B0F
:101AE800318A828B83121B31F50875090078081238
:101AF8000C89AC12AD138A828B83A3AA82AB8312A2
:101B08001DD4120A35850A82850B83E070030218FA
:101B18004579017401120A357F10020B4890029D25
:101B2800E0F8A3E0F583888222F0850A82850B839A
:101B3800E02274F0120A76890B750A00121570708B
:101B480003021C619002811215737003021C61E587
:101B58000B701D750C00800DE50C121C66E0F4601E
:101B680002050A050C900283E0F8E50CC39840E8EA
:101B7800850A0875090074037808120A0CE5082418
:101B880006FAE5093400FB121C7BEE4F700D7A064D
:101B98007B00121C7B750A00750B13EE4F70030255
:101BA8001C4A8E828F8374D0F0A3E50B121DDA7461
:101BB80001121DDAA3E50AF0EE2404F582EF3400E1
:101BC800F583E50A6075EE2406F508EF3400F5099B
:101BD800E508F0A3E509F0750C00900283E0F8E54C
:101BE8000CC398505AE50A6056E50C75F00CA4F839
:101BF800A9F0900281E028F8A3E039F9E8FAE9FBB6
:101C08008A828B83E0F4602FE0850882850983F05F
:101C18008A828B83A3121C94120C89EA2402FCEB9F
:101C28003400FD121DCA120A35E5082408F508E536
:101C3800093400F509150A050C809FE4F0A3F01299
:101C48001DF47A00900283E0F91201E290029D12DD
:101C58001C8790029DE4F0A3F07F08020B4875F002
:101C68000CA4F8A9F0900281E028FAA3E0398A824E
:101C7800F583221204A68A088B09AE08AF0922123E
:101C88001C8E12051222E0FAA3E0FB22E0850882EE
:101C9800850983A3F0750E06750F00780E2274F679
:101CA800120A76E9FE7A237B001202068B09EA45BE
:101CB8000960047A0180027A00EEF91202720216B3
:101CC8005174F2120A768A088B0912157070030291
:101CD8001DC5EA2408F50AEB3400F50B850A82F5E0
:101CE80083E0240FFAE43400FB1204A68A0C8B0D5F
:101CF800AE0CAF0DEE4F7003021DC58E828F83743C
:101D0800D0F0A3E4121DDA740DF0850882850983EA
:101D1800121DE2F0E5082428F582E5093400F58370
:101D2800E0C0E0EE240BF582EF3400F583D0E0F05C
:101D3800850882850983A3121DE2A3F0750C067538
:101D48000D00780C120C89E5082402FCE509340022
:101D5800FDEE2405FAEF121DD1120A35850A828597
:101D68000B83E0F50AEE240CF582EF3400F583E5E9
:101D78000AF0EE240DF8EF3400F9E8FAE9FBE50A79
:101D88006030EE240F0808EF3400F98A828B83E86C
:101D9800F0A3E9F0750B00780A120C89E50824090C
:101DA800FCE5093400FD8A828B83121DEB120A358B
:101DB80080088A828B83E4F0A3F0121DF47F060268
:101DC8000B48E5082402FAE5093400FB12048E7476
:101DD8000222F08E828F83A3A322E08E828F83A3B8
:101DE800A3A322121C8E12048E740222EEFAEFFBB9
:101DF800121B25E0F91204B222C082C08312073AEE
:101E08000221F174F7120A76ECF8EDF97409120A56
:101E18006AE0FCA3E0FD801988828983E08A828BCE
:101E2800831221C8A882A9838A828B83A3AA82AB42
:101E380083ECFEEDFFEE24FF1CEF34FFFDEE4F7048
:101E4800D7022351EEFAEFFB7F06020B4874F51216
:101E58000A76ECF8EDF9740B120A6A1222F8AC084B
:101E6800AD09EC24FFF508ED34FFF509EC4D602CC5
:101E7800EAFCEBFD8C828D83A3AA82AB83E8FEE9A2
:101E8800FF8E828F83A3A882A9838C828D83E0FC36
:101E98008E828F83E06C60C67900800279017F03AF
:101EA800020B4874F6120A76E9FE8C088D09780848
:101EB800120C898E08AC087D001207287402120AD9
:101EC8003502235674E8120A7674DF120A1FE98570
:101ED8001882851983F08A108B118C128D13740364
:101EE800120A6AAC82AD83758380758268740A129F
:101EF800097375838075827C740A120973758380EF
:101F0800758272740A1209737439120A6A12255D8D
:101F1800E4F004120A6A741FF0A37481F085188231
:101F2800851983E0640A60030220848A088B098586
:101F3800120A85130B9080C3780C1209307808793F
:101F48000C120814850C08850D098A0C8B0D851256
:101F58000E85130F9080C37814120930780C791409
:101F68001208149080C37814120930780C7914126E
:101F78000814AE14AF159080C7780C120930781089
:101F8800790C12081485100A85110BE50A450B60B7
:101F980012790A7417120A6AAC82AD83AA0AAB0BCB
:101FA800120578EE4F6012790A740D120A6AAC8233
:101FB800AD83EEFAEFFB120578E508450960127962
:101FC8000A7403120A6AAC82AD83AA08AB09120527
:101FD80078E50A450B602E7417120A6AAC82AD8345
:101FE8007439120A6A122138800E7401120A6A12B0
:101FF800214A120A6A122152850C0E740D120A6ABD
:1020080012215F40E5740D120A6AAC82AD837439FF
:10201800120A6A1221427004EE4F6020750C00808B
:102028000E7401120A6A12214A120A6A1221528592
:102038000C0E7403120A6A12215F40E57403120A37
:102048006AAC82AD837439120A6A122142701BEE9F
:102058004F7017E508450970117401120A6A1221B8
:102068004A120A6A1224011207347439120A6A12CF
:1020780024017421120A357F10020B48E0641060B5
:10208800030221318A088B0974107810120884AE73
:1020980010AF11EE4F60127910740D120A6AAC82FB
:1020A800AD83EEFAEFFB120578E508450960127971
:1020B800107403120A6AAC82AD83AA08AB09120530
:1020C80078EE4F6046740D120A6AAC82AD8374399B
:1020D800120A6A122138800E7401120A6A12214A01
:1020E800120A6A122152850C0A7403120A6AAA8219
:1020F800AB8312073A8A0E8B0F7404C3950EF8E46B
:10210800950FF9C3E50A98E49940CD7403120A6A59
:10211800AC82AD837439120A6A12240112072EEEBA
:102128004F600302207202205B7A007B0002207A53
:10213800122405120734750C0022122158E50A45AD
:102148000B22E0FCA3E0FD743922122158050C2271
:1021580012240512072E22AA82AB8312073A8A108C
:102168008B117404C39510F8E49511F9C3E50E9822
:10217800E4992274F6120A76EAFEEBFFEE4F700637
:102188007A007B008037EE2405FAEF3400FB120555
:102198000C8A088B09A808A909E84960E38882899C
:1021A80083E4F0A31221C8A3EEF0A3EF1221C8A381
:1021B800A3A374FFF0E82405FAE93400FB022356D0
:1021C800F088828983A322C082C083EA4B70047995
:1021D80005801612226360047904800DEA24FBFA54
:1021E800EB34FFFB1205127900D083D0820201354F
:1021F80074F7120A767C0002234E74F7120A76E905
:10220800FEECFFEA4B70047905804D908121E0F8DF
:10221800EEC39840071204AC7903803C1223F612EF
:10222800257E700512226360051204AC80D9EEF099
:1022380074016F700DEAFCEBFD7A487B031204CA47
:10224800800BEAFCEBFD7A487B031204C47A007B1E
:1022580080EEF91204D67900022351EA24FFF582B0
:10226800EB34FFF583E0F42274F2120A76890B75D9
:102278000C00750D007E007F00A2AFE433F50AC2A2
:10228800AF9003488015EE4F700685080C85090D40
:10229800E50824FBF582E5091223FC1222F8E5087B
:1022A80045096023E50824FFF582E5091223FCE0CF
:1022B800650B70D2EE4F7006AE08AF0980D27A0077
:1022C8007B801204D6800B7A007B801204DCEE4FF0
:1022D8006015780C120C89EEFCEFFD7A487B03122E
:1022E80004D07402120A35E50AA2E092AF021E4C2D
:1022F800E0F508A3E0F5092274F7120A76A2AFE424
:1023080033FEC2AFEC24FBF582ED1223FCE4F0A30C
:10231800F012257A70098A828B83800C12240B12A2
:10232800233C8882898370F4ECF0A3EDF0EEA2E000
:1023380092AF8015E824FBF8E934FFF98882898395
:10234800122405EA4B221204B87F01020B487F02CF
:10235800020B4874F7120A76E5A8FEC2AF8A828B90
:102368008312240BEC24FBF582ED1223FCE8F0A386
:10237800E9F08A828B83ECF0A3EDF0EEA2E702236A
:102388003874F5120A76740B120A6A12240BA2AF7B
:10239800E433F50AC2AFEC24FBFEED34FFFF8A827A
:1023A8008B831222F8EC65087003ED65098E828F25
:1023B80083700D12240B8A828B83E8F0A3E98010C6
:1023C800122401E824FBF582E91223FCEAF0A3EBCE
:1023D800F08E828F83E4F0A3F0EC24FFF582ED12F7
:1023E80023FC74FFF0E50AA2E092AF021EA6EA24DD
:1023F800FBF582EB34FFF5832212240522E0FAA3D1
:10240800E0FB22E0F8A3E0F92274F7120A76E9FD6E
:10241800908121E0F8EDC3985029E5A8FEC2AFED00
:10242800C333F8E433F990035CE028FCA3E0398C6B
:1024380082F583E04AF0A3E04BF0EEA2E792AF7991
:10244800008002790302235174F7120A76E9FE909C
:102458008121E0F8EEC398501FE5A8FFC2AFEAF467
:10246800FCEBF4FDEE122566E05CF0A3E05DF0EF16
:10247800A2E792AF790080027903022351E9F87448
:10248800FF687006C2AF790080027907020135C083
:1024980082C083120500900348E4F0A3F0120536C9
:1024A80012051812053012050679000221F1C082C2
:1024B800C0831204F480FB74F6120A7675080012C1
:1024C80004FA1205C6E50812256612257E700D0568
:1024D80008908121E0F8E508C39840E9908121E05F
:1024E800F8E508C3985068E5A8FCC2AFE508C3330F
:1024F800FEE433FF90035CE02EF8A3E03FF9888206
:10250800898312240188828983E4F0A3F0ECA2E78E
:1025180092AFE5089004C9F0F974402EF5827480F2
:102528003FF58312255D120A749004C974FFF0E523
:10253800A8F9C2AF90035CE02EF8A3E03F8882F5CB
:1025480083E04AF0A3E04BF0E9A2E792AF800312E0
:10255800052A022356E0F8A3E0F583888222C333D4
:10256800F8E433F990035CE028FAA3E0398A82F5AD
:1025780083228A828B83E0F8A3E0F9E84922C082AB
:10258800C0839061907404F0A37448F0A37402F0BF
:102598009061807440F09061BC7403F0906187741E
:1025A80019F0906265741BF090619C740DF0906155
:1025B8009A7433F0A37455F09061A0743AF09002C5
:1025C800FBE064017009C2919002C67467800590AF
:1025D80002C67461F090149EE493906186F09014A2
:1025E80098E493F46027E493540FF8906185E068C9
:1025F8006012E5C654804449F5C6E59E547F644997
:1026080070F8E8F053C680E59E547F70FA79051299
:10261800045E0227B1C082C083E9540FF990618536
:10262800E0696012E5C654804449F5C6E59E547FCA
:10263800644970F8E9F053C680E59E547F70FA0249
:1026480027B1C082C083E5A8F853A87E906181E4D1
:10265800F0A3F0A3F0C2BA539AFEC289759B00C2D8
:10266800C275E90075910075BF0075A91175B905A6
:10267800906181F0A374C0F0A3E4F0D2BA439A0148
:1026880074805842A80227B1C082C08374F8120A25
:102698001F9002C4E0F8A3E0F9E84970030227A9F3
:1026A8009002C4E054406023790885188285198314
:1026B800AA82AB83120314851882851983AA82AB78
:1026C800831202789002C4E054BFF0E0A2E05031D7
:1026D80090619A7433F0A37455F09061A0743AF045
:1026E8009002FBE064017009C2919002C674678091
:1026F800059002C67461F012027E9002C4E054FE96
:10270800F0E05402603190619A743FF0A3745AF07B
:102718009061A0747FF09002FBE064017009D2918F
:102728009002C6747180059002C6746AF012027E27
:102738009002C4E054FDF0E05404601390149CE44B
:1027480093906186F01202849002C4E054FBF0E09A
:102758005408601390149DE493906186F0120284EB
:102768009002C4E054F7F0E05410601390149EE413
:1027780093906186F01202849002C4E054EFF0E076
:102788005420600A1202849002C4E054DFF0A3E0EF
:102798005401600D1202F012028A9002C5E054FE44
:1027A800F07408120A358001F0D083D08202013516
:1027B80074EC120A7674F4120A1F8518828519833C
:1027C800AC82AD837583807582BF740412097390DF
:1027D800149C93F46003022945907808E0C394029E
:1027E80050030229257404120A6AAC82AD837583EA
:1027F8008075828674081209738518828519838505
:1028080082128583137404120A6AAC82AD83750E32
:10281800FF750FFF7FFF7E00750C48750D788015DA
:1028280074086E70030228B874096E70030228B821
:10283800740A6E607B850C82850D837808120930D6
:102848008C828D83A909E50AC9F88810741878085C
:10285800120884E5104508F8C3E098A3E099850CB0
:1028680082850D83780812093040188C828D837414
:10287800187808120884E5104508F8E0C398F8A30A
:10288800E0801C74187808120884E5104508FAE9F5
:10289800FB8C828D83E0F8A3E0F9EAC398F8EB9902
:1028A800F9C3E8950EE9950F5006880E890FEEFFDB
:1028B8000EE50C2404F50CE50D3400F50DEEC3947B
:1028C80013500302282874FF650E700474FF650F07
:1028D80060238F0874027808120A0C74482508F5DA
:1028E8008274783509F58378081209308512828553
:1028F8001383E508F0EC24020C0CED3400FD85127E
:1029080082851383A3858212858313740C120A6A45
:10291800E5826C7003E5836D600302281675080173
:102928007509007808120C897402120A6AAC82AD23
:10293800837A277B051205D27402120A35740C12A9
:102948000A357F0C020B48C082C0839061AE746860
:10295800F0A3746AF090624574FBF0A304F053F49A
:10296800FD43FE029002FB7401F09061A0E0643A1E
:1029780090619A70237433F0A37455F09061A07439
:102988003AF0740164017009C2919002C6746780BC
:10299800289002C674618021743FF0A3745AF090A5
:1029A80061A0747FF0740164017009D2919002C62D
:1029B800747180059002C6746A0227B0C082C08311
:1029C8009002F67425F09002F47401F0A3E4F07A12
:1029D80001FB1203F29002E2E02416F8A3E03400AF
:1029E800F9888289837402F0A37403F09002F3E0FB
:1029F800640170169002F2E07010790112043A1224
:102A0800041012043479001204460227B1C082C0AF
:102A18008374FA120A1F9002EBE064017008120234
:102A2800F69002EBE4F075E1F19002E2E02415F88B
:102A3800A3E03400F9888289837401F09002EDE004
:102A480064017076908095C082851882851983AC60
:102A580082AD83758380D082740612097375D90D8F
:102A68009002E4E0C4333354C04403F5D978E279E2
:102A78000288828983A3A3A3E0F5D988828983A3E6
:102A8800A882A983E864E87003E9640270E3851802
:102A980082851983A882A98388828983E0F5D9A3CE
:102AA800A882A9837406120A6AE582687003E5831E
:102AB8006970E575E1957901800279001203F89053
:102AC80004AF7426F0A37403F0A3742CF0A374036A
:102AD800F0A37426F0A37403F0A37426F0A3740380
:102AE800F0A37420F0A37403F0A37420F0A374037C
:102AF800F0A37432F0A37403F09004BD7420F0A323
:102B08007403F0A37420F0A37403F0A37420F0A35B
:102B18007403F0A37420F0A37403F0A37420F0A34B
:102B28007403F0A37420F0A37403F09002E4E0F9B6
:102B38007AE57B021203DA9002F6E0F9121425799D
:102B4800011203FE9080BB12094E12040A9080E322
:102B580012094E1203E079001204529002E2E024B6
:102B680014F8A3E03400F9888289837416F090027F
:102B7800C27405F0040227ABC082C0839002E2E071
:102B8800F8A3E0F5838882A3A3A3A3A3A3E4F0A3F7
:102B9800F09002F6E0F91214250227B1C082C08332
:102BA80078C9790288828983A3E4F088828983A31B
:102BB800A882A983E864D17003E9640270E69002F0
:102BC800CA74010227B074F4120A76E99002C1F0BF
:102BD8001203C8907800E0C4540F540764037004CB
:102BE800793F8002797F7508067509007808120C0C
:102BF800897CAF7D027AEA7B071205CC7402120A3F
:102C0800359002AFE0F47049A3E0F47044A3E0F417
:102C1800703FA3E0F4703AA3E0F47035A3E0F470D9
:102C28003090780EE09002AFF090780FE09002B00C
:102C3800F0907810E09002B1F0907811E09002B234
:102C4800F0907812E09002B3F0907813E09002B41C
:102C5800F09002B574FFF0A3F0A3F0A3F0A3F0A3E3
:102C6800F09002AFE09002BBF09002B0E09002BC9E
:102C7800F09002B1E09002BDF09002B2E09002BE86
:102C8800F09002B3E09002BFF09002B4E09002C06E
:102C9800F09002D37406F0A3740DF0A3E4F0A374CB
:102CA80032F0A37401F09002E574FFF0A3F0A3F0F2
:102CB800A3F0A3F0A3F09002E4E4F09002EB04F098
:102CC800A3E4F0A3F0A37480F0A37402F0A37480CB
:102CD800F0A37402F0A3E4F0A304F0A3F0A3E4F0DB
:102CE800A37425F0A3E4F0A3F09002F974FFF0A315
:102CF800E4F09002FBF09002FD04F01202EA1202E6
:102D0800BA12037A79017AFE7B021203149002FE4A
:102D1800E075F01484E5F004F012031A7A009002CA
:102D2800C1E0F9120524907803E06442705E9002D5
:102D3800FEE014F07056C2AF122D4300781ED0E0AA
:102D4800F618D0E0F6E59F5407F970059080B78033
:102D5800039080B37808120930E9C4C0E0781DE612
:102D68005508F50808E65509F509740B780812099D
:102D7800FDD0E02508F8906270E0A2E740F8E8C3CB
:102D880033906272F0906270E0D2E0F09002E0E47A
:102D9800F0A3F07A80FB9002C1E0F91204D6023267
:102DA8000574F7120A76EAFEEBFFEEA2E0504790B0
:102DB80002C3E0C39480E0500FC333F8E433F974DE
:102DC800AF28F5827404800EF4C333F8E433F97441
:102DD800BD28F582740439F583E0F8A3E0F583880B
:102DE80082120A747A009002C1E0F9120524EE6496
:102DF80001FAEFFB804D54806021790012051E9086
:102E0800810F120C9C7A007B019002C1E0F9120537
:102E18004E7404120A35EE648080D6EF5401600CBB
:102E2800790112051EEEFAEF640180C79002C8E02E
:102E38006401700BEE54206006EE6420FA80047A78
:102E4800007B00022F27C082C083C2AF1203AAE50D
:102E5800E170FC75E1011202DE1202D275E1F11295
:102E680003D4790712044C7901120452790212032F
:102E7800EC12041012043479001204467901120489
:102E8800469080E312094E1203E09002ECE4F0123F
:102E980003441203087900120458906012E4F0A366
:102EA800F0906063F0751B009002C2F09002C4F0CD
:102EB800A3F09002C7F09002C804F09002D204F088
:102EC8009002FCE4F0D2AFF9022F20C082C08390B8
:102ED80002AFE08A828B83F09002B0E08A828B8313
:102EE800A3F09002B1E08A828B83A3A3F09002B290
:102EF800E08A828B83A3A3A3F09002B3E08A828B3B
:102F080083A3A3A3A3F09002B4E08A828B83A3A334
:102F1800A3A3A38000F07900D083D0820201357F7B
:102F280001020B4874F7120A76E9FE7409120A6A5C
:102F3800E0FF740A120A6AE0F508EE600574016E93
:102F4800703BEF600574016F7033EA24FCF8EB34D2
:102F5800FFF9C3E894FDE9943F5022EC24FCF8ED16
:102F680034FFF9C3E894FDE9943F5011C3EA9CEBA0
:102F78009D400AE508600B74016508600579120236
:102F8800302B9002ECE064017005790C02302BEED6
:102F9800A3F0E5089002F2F0EF9002E4702FE4F05D
:102FA8009002AFE09002E5F09002B0E09002E6F007
:102FB8009002B1E09002E7F09002B2E09002E8F0EF
:102FC8009002B3E09002E9F09002B4802E7401F010
:102FD8009002B5E09002E5F09002B6E09002E6F0CB
:102FE8009002B7E09002E7F09002B8E09002E8F0B3
:102FF8009002B9E09002E9F09002BAE09002EAF09B
:103008009002EEEAF0A3EBF0A3ECF0A3EDF0E508F4
:10301800700479008008740165087005790112044C
:103028001C7900022F2774F4120A76E9FEEAFF9051
:1030380002C2E064096014E0640A600FE0640B6097
:103048000AE0640C6005E0640D7005792102320520
:103058009002EDE06004640170549002E4E06004C2
:103068006401704A9002EEE024FCF8A3E034FFF912
:10307800C3E894FDE9943F5035A3E024FCF8A3E0AD
:1030880034FFF9C3E894FDE9943F50229002EEC062
:10309800829002F0E0F8A3E0F9758302D082C3E0E1
:1030A80098A3E0994008EF600A74016F60057912EF
:1030B800023205EE700302317A1470F29002ECE0ED
:1030C80064016087790212035C9002E2EAF0A3EBE4
:1030D800F09002EC7401F09002EBF0EF9002F3F044
:1030E8009002C2E060030232031202FC1203B68AA5
:1030F800088B098C0A8D0B90811778081208CF90DD
:1031080080CB780812091D9002E2E0F8A3E0F5836D
:103118008882A3A3780812093F9002E2E0F8A3E0AE
:10312800F5838882A3A3A3A3A3A3E4F0A3F090024A
:10313800E2E0F8A3E0F5838882A3A3C082C083906D
:1031480002F0E0F508A3E0F509E4F50AF50BD083F1
:10315800D08278081208CF9002E2E0240EF8A3E0AB
:103168003400F988828983780812093F12034A02D9
:1031780032039002ECE07003023053A2AFE433F55F
:1031880008C2AF7AE27B021203629002ECE4F0120A
:103198000374E9703C1203AA906182E0C2E6F0E58C
:1031A800E170FC75E1017591BF790112045275E176
:1031B800F19002C8E0640170187A207B009002C187
:1031C800E0F912055A7A207B009002C1E0F9120456
:1031D800DCE508A2E092AF9002F2E064017005120B
:1031E80004348017A3E0640170119002F2E0700BC0
:1031F800120410120434790112044079007F040289
:103208000B48C082C08390032AE4F090032974FF1E
:10321800F0900326F0900325E4F0900324F0900347
:1032280027F0A3F002380674F0120A76900327E01C
:10323800F508A3E0F509E508450970061202E4025D
:103248003477850882850983E014600A14600724AE
:10325800FE6003023477E0F91203568A0A8B0BAE3C
:103268000AAF0BEE65087003EF65098E828F8360E5
:10327800030233A0E064026003023470EE2415F503
:1032880082EF3400F583E060419002EEE0F8A3E0BD
:10329800F9A3E0687003A3E069602F1203B68A08F7
:1032A8008B098C0A8D0B9080CF78081208CF78088C
:1032B800120C858E828F83A3A312094E1213607499
:1032C80004120A35E960030234701203B68A088BC7
:1032D800098C0A8D0B90809B78081208CF9080CBC0
:1032E800780812091D8E828F83A3A3780812093FDC
:1032F800EE2415F582EF3400F583E0640170338E17
:10330800828F83A3A3C082C0839002F0E0F508A354
:10331800E0F509E4F50AF50BD083D08278081208A5
:10332800CFEE240EF582EF3400F583780812093FBA
:103338008063EE240EF582EF3400F583120C9C8E28
:10334800828F83A3A312094E1213607404120A35E4
:10335800E9640170408E828F83A3A3C082C08390EA
:1033680002F0E0F508A3E0F509E4F50AF50BD083CF
:10337800D08278081208CFEE240EF582EF3400F5DB
:1033880083780812093F9002F6E0642770047425D8
:103398008002E004F0023470E064026003023477D3
:1033A8001202FC9002F3E0640170169002F2E070E1
:1033B80010790112043A120410120434790012042C
:1033C800409002EEE0F8A3E0F9A3E0687003A3E000
:1033D80069602C1203B68A088B098C0A8D0B9080C1
:1033E800CF78081208CF7808120C858E828F83A3B5
:1033F800A312094E1213607404120A35E97063EEC1
:103408002402F8EF3400F9880889091203B68A0CF7
:103418008B0D8C0E8D0F90809B780C1208CF9080AE
:10342800CB780C12091D850882850983780C12094E
:103438003F850882850983C082C0839002F0E0F549
:1034480008A3E0F509E4F50AF50BD083D0827808E3
:103458001208CFEE240EF582EF3400F583780812B7
:10346800093F9003267402F0EEFAEFFB1203507F37
:1034780008020B4874F0120A76EAFEEBFFEE24020B
:10348800F8EF3400F988088909EE2406F8EF3400CB
:10349800F9880A890B8882F583120CA08508828531
:1034A800098312094E1203987402120A35850A829A
:1034B800850B83120CA085088285098312094E1298
:1034C800038C7402120A35EE240EF582EF3400F5EF
:1034D8008312094E12039E8E828F83E06440701C13
:1034E800EE2412F8EF3400F988828983E090606452
:1034F800F088828983A3E09060658006906064E428
:10350800F0A3F0900327EEF0A3EFF0EE2416F58277
:10351800EF3400F583E0F8A3E0F5838882120A749B
:10352800906054E4F0A3F0A3F0A3F0A3F0A3F0A3F9
:10353800F0A3F0A3F0A3F0A3F0A3F0906182E0C29F
:10354800E6F07591BFEE2415F582EF3400F583E0BF
:10355800640170031203CEE5E170FCEE2414F582D9
:10356800EF3400F583E0F46003E0F5E1EE2415F5AF
:1035780082EF3400F5837401F09002C8E0640170B2
:103588006F1203B68A088B098C0A8D0B7808120C07
:10359800858E828F83A3A312094E1213BD74041261
:1035A8000A358A088B098C0A8D0B90809F780C123B
:1035B80009307808790C1207947403780812088483
:1035C800E50824F4F508E5093401F5099002FDE061
:1035D80060031204FAE4F50AF50B7808120C857AF0
:1035E800207B009002C1E0F912054E7404120A35DE
:1035F80002347774F0120A76890874FF6508702A15
:10360800900325E05407601F900329E06404600AD2
:10361800E064016005E064027010A3E06401701EBC
:103628007A297B03023739023735900329E0650888
:10363800700CA3E0640170067E297F0380047E007D
:103648007F00900329E06508700AA3E06401700414
:10365800780180027800E914600F1470030236FBC9
:1036680024FE700302371280BE900329E0640270C2
:103678003CA3E064017075E8A2E050A4A3780C12A2
:1036880009309080A3780C1208CF780C120C858E24
:10369800828F83A3A312094E1213607404120A3591
:1036A800E96003023628EEFAEFFB023739E06404DA
:1036B800703AA3E064017034E8A2E04003023628BF
:1036C800A3780C1209309080A3780C1208CF780CDC
:1036D800120C858E828F83A3A312094E1213607475
:1036E80004120A35E9600302362880BAE8A2E050DD
:1036F8003C80B3900329E064047008A3E06401707F
:10370800EB80B5E0640160F380E2900329E0640196
:103718007008A3E06401700D809EE064027006A347
:10372800E064016093E8A2E050030236AE7A007BC1
:103738000002347774F7120A76E9FE90032AE070E3
:103748005B7401F0EE900329F01203B690032B127C
:10375800095A90032FE4F0A3F090810712094E90C4
:10376800033712095A90033D7401F0A3F0A3E4F063
:10377800A3F0900325E04EF0900324E004F06401E8
:10378800600A74806E600574406E700A9003277436
:1037980029F0A37403F07A297B0380047A007B0064
:1037A8007F01020B48C082C0838A828B83E0F8A322
:1037B800E0F98A828B83E4F0A3F088828983A3F0FE
:1037C80088828983E0F4F8900325E058F090032478
:1037D800E014F0700B900327E4F0A3F09002C2F01D
:1037E800801CC082C083900324E0600A900327E015
:1037F800FAA3E0FB80047A007B008002E0F9D08322
:10380800D082020135C082C083E9F8900329E068BC
:103818007005A3E0F98002790080E3C082C083903C
:10382800032480D8C082C0831203D41203CE023C82
:10383800C5C082C0839061B1E0C2E0F0E04403F00B
:10384800906188E0640470F8023CC5C082C083902F
:1038580061C0E0FAE4F0F8F9E82400F582E93460A0
:10386800F583E41238829480E9940140EBEA906190
:10387800C0F090618A7401023CC0F012388722E8D7
:10388800240108E93400F9C3E822C082C0838A828F
:103898008B83E0906016123C5BA3E09060171238AF
:1038A800D09060181238D99060191238DE90601ADA
:1038B8001238E390601BF0E99060157005E0C2E0F3
:1038C8008003E0D2E0023CC4F08A828B83A3A3E0A9
:1038D800221238EEE0221238E9E0221238E9A3E099
:1038E800221238EEA322F08A828B83A3A3A3227428
:1038F800F0120A76EA906005F0EBA3F0ECA3F07FF3
:1039080008020B48C082C083740169906003700587
:10391800E0D2E08003E0C2E0023CC4C082C08390F1
:103928006003E054F949023CC4C082C083EA906055
:103938000AF0EB5401023CC3C082C083E990600CDA
:103948007005E0C2E08003E0D2E0023CC4C082C05F
:1039580083E990600C7005E0C2E18003E0D2E102E7
:103968003CC4C082C083906061E00239A374F01245
:103978000A76EA906195123CB7023905C082C08385
:10398800900341E4F0906022F0A3F0A37830F0A314
:10399800D8FC023CC5F07F02020B48F9023CC57412
:1039A800F4120A76EAFEEBFF89088C09900341E0DD
:1039B800640870047903807E120470E9F460047965
:1039C8000080737900750A01750B00E9780A120AFC
:1039D8000CAC0A906022E05C7053E04C123A43FA57
:1039E80074603BFB78068E828F83123C868E828FB2
:1039F80083A3AE82AF838A828B83A3AA82AB831808
:103A0800E870E3E508700AECF4F8906023E0588069
:103A180005906023E04CF0900341E004F0740165E8
:103A2800097005120422809712042E809209E9C3B6
:103A38009408409179017F04020B48F0E975F0067B
:103A4800A4FAABF074242A22C082C083E9906014DF
:103A58007005E0C2E28003E0D2E2023CC474F612D0
:103A68000A76750801750900E97808120A0C906051
:103A780009E0450802399D74F7120A761204707439
:103A8800FF6960071204227900800279057F01022C
:103A98000B4874F6120A76750801750900E978086A
:103AA800120A0CE508F4F8906009E05802399DC044
:103AB80082C083906009E4023CC474F2120A7674EE
:103AC800FA120A1F7A007B60E970027A3390600963
:103AD800E0F8906022E0F50BA3E0F99061C0740172
:103AE800F0E88A828B83F0A3E50BF0A3E9F0A3AAA0
:103AF80082AB839061C0E4F0F50A750C01750D0086
:103B0800E50A780C120A0CE50C550B60567509008D
:103B1800E50A75F006A4F8A9F0850982AC82742438
:103B280028FE746039FFEE2CF582EF123C50C0E09D
:103B3800123C2CD0E0123C6140DF9061C07401F06F
:103B4800750900123C3EC0E0E82CFCE93400FDEAAF
:103B58002CF582EB3DF583D0E0123C6140E59061A5
:103B6800C0E4F0050AE50AC39408408E7406120AF8
:103B7800357F06020B4874F2120A7674FA120A1F8D
:103B88007A007B60E970027A33123C56E0F8A3E0D1
:103B9800F50BA3E0F9A3AA82AB839061C0E4F0E837
:103BA800906009F0E50B906022F0E9A3F0750A0037
:103BB800750C01750D00E50A780C120A0CE50C5518
:103BC8000B60559061C07401F0750900E50A75F045
:103BD80006A4F8A9F0850982AC82EA28FEEB39FF31
:103BE800EE2CF582EF123C50C0E0123C2CD0E012D3
:103BF8003C6140E19061C0E4F0F509123C3EC0E050
:103C0800E82CFCE93400FD74242CF58274603DF541
:103C180083D0E0123C6140E3050AE50AC3940840FA
:103C28008F023B74851882851983E5822CF582E51D
:103C3800833400F58322850982AC82851882851930
:103C480083E5822CF582E5833400F583E0229061D8
:103C5800C07401F08A828B8322F00509E509C394B8
:103C68000622C082C0837A007B60E970027A331230
:103C78003C56E4F0A3F0A3F09061C0023CC4123CAF
:103C88008A22123D33F022C082C083E9906002800C
:103C98002BC082C083E99060027005E0D2E3800304
:103CA800E0C2E38017C082C083E99061C6800DF04E
:103CB800EBA3F0ECA3F0ED22F0A3F0A3F0D083D0B7
:103CC80082020135C082C083E9601714601C146049
:103CD8002114602614602B14603014603614603C84
:103CE80080419061E9E054FC80389061E9E0D2E0DD
:103CF80080309061E9E0C2E080289061E9E0D2E19B
:103D080080209061E9E0C2E180189061E9E0C2E1B9
:103D1800F080DA9061E9E0C2E0F080E19061E9E0EA
:103D28004403F0809875E182020135E08A828B8332
:103D380022C082C083E9C3332417906184F07401E0
:103D48006A70079061A6740A8017E9C39414E0505A
:103D58000904F09061A67425800714F09061A67498
:103D68000F023CC474F5120A76890A7900750801B5
:103D7800750900E97808120A0C906022E05508607D
:103D880052E975F006A4FCADF074242CFC74603D77
:103D9800FD750800850882AE82EC2EF582ED123C96
:103DA80050F8EA2EF582EB123C506870090508E5D8
:103DB80008C3940640DE740665087017906023E017
:103DC800F508750900E978081209EDE50854016558
:103DD8000A600909E9C39408409379FF7F03020B3D
:103DE8004874F4120A7674FC120A1F7E00900409C3
:103DF800E4F0900406F07F7D7508047509007808E2
:103E0800120C897402120A6AAC82AD837A007B00B4
:103E1800EF1242C4120A35851882851983C082C000
:103E2800839081037808120930D083D082780812F1
:103E380007407019900406E06010F91206E0EFF9E7
:103E48001206E0900406E4F08021EF80FA851882DB
:103E58008519837808120930E5084509450A450B94
:103E68007004EFFE8005EFF91206E00FEFC3947FB0
:103E78004086900406E07026EE7018797D1206D40C
:103E88009004077404F0A3E4F0900409E060197941
:103E9800008017F01206E6EEF91206F2800AEE60CC
:103EA80004F91206DA1206E67901023F5174F71294
:103EB8000A7674FC120A1FE9FE90810312094E85E6
:103EC800188285198312095A851882851983AC824C
:103ED800AD837A007B001206FE900409E07005EEBF
:103EE800900406F07404120A357F01020B48D0834F
:103EF800D08202013574F4120A7674FF120A1F89FF
:103F080008900409E060089004097401F0803612F2
:103F180005D87E007F00750A01750B00780A120C1F
:103F2800897402120A6AAC82AD83EEFAEFFBA90823
:103F38001242C5120A35851882851983E0F470C7C4
:103F4800123FA340D1740180027404120A357F0421
:103F5800020B4874F4120A7674FF120A1F89087E4D
:103F6800007F00750A01750B00780A120C8974022B
:103F7800120A6AAC82AD83EEFAEFFBA9081242C5B9
:103F8800120A35851882851983E0F46007A908129A
:103F980006DA8005123FA340CA80AAEE24010EEF7C
:103FA8003400FFC394082274F4120A7674FC120ACF
:103FB8001F7EFC7F077508047509007808120C89B4
:103FC8007402120A6A1242B8120A358518828519D3
:103FD80083C082C0839081077808120930D083D0CB
:103FE800827808120740700AEE24FCFEEF1240980F
:103FF80050C3EE2404F8EF3400F9900407E8F0A366
:10400800E9F0023F5174F4120A7674FC120A1F890F
:1040180009EAFEEBFF8C08EE24FCFEEF1240984004
:1040280068750A04750B00780A120C897402120A62
:104038006AAC82AD83EEFAEFFBA9091242C5120AF7
:10404800357402120A6AE0F8A3E0F9851882851926
:104058008385080AE0650A7002A3E0700AEEC39837
:10406800FAEF9400FB8026E9548070ABE82404FA48
:10407800E93400FBC3EE9AEF9B400EEEC398F8EFCD
:1040880099F9E824FCFEE980937A007B00023F510D
:1040980034FFFFC3EE9404EF94002274EA120A7608
:1040A80074F8120A1F8910750DFF747D651070056C
:1040B800750C7E8003750C7D750A04750B009004E1
:1040C80007E024FCFEA3E08005EE24FCFEEF12408E
:1040D800985003024200900409E0600302421A75F6
:1040E80008047509007808120C897402120A6AAC6F
:1040F80082AD83EEFAEFFBA9101242C5120A35858C
:104108001882851983E0F47003A3E0F4702D74021B
:10411800120A6AE0F8A3E0F9548070AD124345EE44
:1041280098EF99500302421A7402120A6A12422442
:10413800F8EF99F9E824FCFEE9809385188285193F
:1041480083A3E0548070E1851882851983850D0862
:10415800E065087002A3E060CF851882851983E0C6
:10416800F50DFCAA0AAB0BA90C1206EC8B09EA4563
:104178000970B57402120A6A124224F508EF99F51B
:104188000988148915750E00750F007512047513CA
:10419800007812120C897406120A6AAC82AD83E5A3
:1041A80008250EFAE509350F1242BF120A357404C4
:1041B800120A6AAC82AD83E50A250EFAE50B350FC3
:1041C800FBA90C1206FEE50E2404F50EE50F3400DB
:1041D800F50FC3E514950EE515950F50AE74021250
:1041E8000A6AE02404F8A3E03400F9E50A28F50A8D
:1041F800E50B39F50B024130A90C1206D4900409DD
:10420800E0700A900407E50AF0A3E50BF0A9101284
:1042180006DA7408120A357F0E020B48E0F8A3E0AC
:10422800F9EEC3982274F0120A7674FC120A1F89F8
:104238000B8A088B09ECFEEDFF7414120A6AE0F58C
:104248000A8014E5082404F508E5093400F509EEA8
:104258002404FEEF3400FF850A0C74FF250CF50AD0
:10426800046043750E04750F00780E120C897402F1
:10427800120A6AAC82AD83AA08AB09A90B1242C51F
:10428800120A35780E120C89EEFCEFFD7402120A40
:104298006AAA82AB831204947402120A35E970A3E5
:1042A8009004097401F07404120A357F08020B485F
:1042B800AC82AD83EEFAEFFB900406E0F91205CC70
:1042C80074022274F1120A76890E8A088B09ECFEB0
:1042D800EDFF900409E0704D750A01750B00780A2E
:1042E800120C898A0A8B0B7402780A1209FD890C50
:1042F800F50D7409780C120A0CE50A2400FAE50B8E
:10430800350DFB1205D27402120A35750A01780AB6
:10431800120C8DEEFCEFFDAA08AB09A90E1206F8E7
:104328007401120A357F07020B48C082C083120647
:10433800CEE97004790180027900023EF6E824048F
:10434800F8E93400F9C32274F4120A76907803E08D
:104358006442705E9002FEE014F07056C2AF1243E1
:104368006900781ED0E0F618D0E0F6E59F5407F90A
:1043780070059080B780039080B37808120930E9FF
:10438800C4C0E0781DE65508F50808E65509F509A2
:10439800740B78081209FDD0E02508F8906270E0E7
:1043A800A2E740F8E8C333906272F0906270E0D2FE
:1043B800E0F0790212036EE96401702FE5A1A2E52D
:1043C800500875A1DF12032C80249002C3E070040A
:1043D8007901800279001203389002E2E02415F88E
:1043E800A3E03400F988828983E4F012034A7F0449
:1043F800020B4874F4120A76790212036EE964011A
:1044080060030244C379011203389002F6E064277E
:10441800700474258002E004F09002E2E02402F8BF
:10442800A3E03400F9E8FAE9FB9002EEE0F508A30E
:10443800E0F509E4F50AF50B8A828B8378081208FF
:10444800E29002E2E0F8A3E0F5838882A3A3A3A3A5
:10445800A3A3E4F0A3F09002F0E0F508A3E0F509C7
:1044680089838A8278081208CF9002E2E0240EF845
:10447800A3E03400F988828983780812093F900202
:10448800E2E02414F8A3E03400F9888289837416E2
:10449800F09002E2E02416F8A3E03400F98882895B
:1044A800837402F0A37403F09002E2E02415F8A3E9
:1044B800E03400F9888289837401F012034A0243C8
:1044C800F6C082C08353BFEF790212036EE964011C
:1044D800700C7AE27B021203629002ECE4F075E160
:1044E800F112034AD083D08202013574F6120A769B
:1044F80074FC120A1FE9FE9061C8E0700302473796
:104508007401120A6A8582088583097808120C8961
:104518007508057509037808120C897406120A6A69
:104528008582088583097808120C897508FF750942
:10453800027808120C897408120A6AAC82AD837476
:104548000B120A6AAA82AB8312033E7408120A3558
:104558009002F3E06401702C9002F2E070137C0189
:10456800851882851983E0F97AFF7B021204168088
:10457800136401700F851882851983E0F97AFF7B2F
:10458800021204287401120A6AE0F5087808120C6D
:104598008D7508057509037808120C897405120AC7
:1045A8006AE0FB7CFF7D027403120A6AE0FA740673
:1045B800120A6AE0F91202A87403120A3512046496
:1045C8009061C8E0700302473774016E60030246C9
:1045D800CB7401120A6A8582088583097808120C4F
:1045E800897508057509037808120C897406120A7A
:1045F8006A8582088583097808120C897508FF7511
:1046080009027808120C897408120A6AAC82AD8310
:10461800740B120A6AAA82AB8312033E7408120A48
:10462800357401120A6AE0F5087808120C8D7508CD
:10463800057509037808120C897405120A6AE0FBEB
:104648007CFF7D027403120A6AE0FA7406120A6A91
:10465800E0F91202A87403120A359002F8E4F09007
:1046680002F7E004F0640270269002F4E0F8A3E098
:10467800C313F9E813F89002F4F0A3E9F0E84970DD
:10468800099002F47401F0A3E4F09002F7E4F090CA
:1046980002F4E064017002A3E070067A017B0080F6
:1046A8001A12030EE9F879009002F4E0FAA3E0FB8D
:1046B800120994EA24010AEB3400FB1203F21204F3
:1046C80064806C75E1819002F7E4F0A3E004F06483
:1046D80002702D9002F4E0F8A3E0F9E8C333F8E99A
:1046E80033F99002F4E8F0A3E9F0C3E89401E994FF
:1046F8000140089002F4E4F0A304F09002F8E4F01A
:104708009002F4E064017002A3E070067A017B0075
:10471800801A12030EE9F879009002F4E0FAA3E097
:10472800FB120994EA24010AEB3400FB1203F27429
:1047380004120A357F02020B4874F1120A7674FEDD
:10474800120A1FEAFEEBFF8C088D097411120A6A1F
:10475800E0FAA3E0FB7413120A6AE0F8A3E0F98810
:104768000C890D7415120A6AE0F8A3E0F97417129F
:104778000A6AE0FCA3E0FDE5D924F9F50A850C8274
:10478800850D83F0E5D9F50B740F550B6010146097
:104798001414602324FE602F24FE602380318E824F
:1047A8008F83E480308E828F837401F0850C82853C
:1047B8000D83E024FA801E8E828F83740380168E08
:1047C800828F837402800E8E828F83740480068E9B
:1047D800828F8374FFF0E50BA2E6E43385088285B7
:1047E8000983F0EA4B700A7A06E5D91AEA601E8056
:1047F800F88A828B83E5822406FAE5833400FBE598
:10480800D9F0A3EA65827003EB658370F2E849701A
:104818000DE50A601AFAE5D91AEA601380F8E50A84
:10482800600D88828983FBE5D9F0A31BEB70F885BE
:104838001882851983A882A983E5D988828983F09B
:10484800A3A882A9837402120A6AE582687003E544
:10485800836970E5851882851983E0648070088C07
:10486800828D83747F80129002C6E0F88518828555
:104878001983E0C3988C828D83F07402120A357F05
:1048880007020B48C082C0839002A774FFF0A3F010
:10489800A3F0A3F0A3F0A3749FF0A3E4F0A3742003
:1048A800F09002A614F0D083D0820201357F020274
:1048B8000B487F0A020B4874EE120A768A088B09A5
:1048C800890B8C0E8D0F900344E07009900346E02D
:1048D80070030249899002A4E06003024989898231
:1048E80085820C750D00E92407FAE43400FB1204F4
:1048F800A68A108B11AE10AF11EE4F700302499AC1
:1049080074186508700474206509600C74176508CC
:104918007004742065097010900346E0600AF50A77
:104928008E828F837492800C900344E0F50A8E8205
:104938008F837491F0A3740E1249BC8E828F83A367
:10494800A3F08E828F83124D8AEE2405F8EF34008F
:10495800F9E8FAE9FBEE24070808EF124B26F0788D
:104968000C120C89AC0EAD0F8A828B83E0FAA3E09F
:10497800124AED120A35EEFAEFFBA90A1204B280C8
:1049880011780E120C89AC0B790E1202A274021265
:104998000A350248BA74F6120A76E9FE8C088D09BF
:1049A8007808120C89EEFC79FF1202A27402120A2E
:1049B800350248B5F09002A5E02274F0120A768913
:1049C800098A0A8B0B8C087410120A6AE0F50CA38A
:1049D800E0F50D74072508FA74FF6509600478038B
:1049E80080027802E82AFA7B001204A68A0E8B0F4E
:1049F800AE0EAF0FEE4F7003024AC48E828F8374DF
:104A080001F0A374FFF0EE24020A0AEF3400FBEE73
:104A18002404F8EF124B19E509124B0FE024021297
:104A28004D3DA90B74FF65096031740325081249CF
:104A3800BCC0E0124AD2D0E0124AFDE50A124AFD93
:104A4800A3E9F085080A750B00780A120C89AC0CEA
:104A5800AD0D8A828B83E0240680557402250812E6
:104A68004AC9C0E0124AD2D0E0124AF4E0C0E012CB
:104A78004ADFD0E0124AF4A3E0C0E0124ADFA3D034
:104A8800E0124B09E50A124B09A3E9F085080AE58B
:104A98000A24FDF50AE434FFF50B780A120C89E5BF
:104AA8000C2403FCE50D3400FD8A828B83E0240886
:104AB800124AE4120A35EEFAEF124DAD7F08020BE6
:104AC80048F0850C82850D83E022124AD6228A821C
:104AD8008B83E0124D3022124AD6A322FAA3E03487
:104AE80000124AED22FB12048E740222F0850C8219
:104AF800850D83A322124B0122124B36A3A3A3A335
:104B080022124B01A3A322124B1322F08A828B8319
:104B180022124B26124B327404124B32A322340059
:104B2800F98A828B83E8F0A3E922124B3622F08AB5
:104B3800828B83124D9F2274E8120A7689148A1197
:104B48008C168D178B0D741A120A6AE0F5108B8279
:104B5800AE82900344E07003024C257A2F124D0375
:104B68007003024CFE124D717402F0EA2403F50E34
:104B7800EB3400F50F850E82F5837401F0EA240604
:104B8800F508EB3400F509124D85750C0080738526
:104B98000882850983E514F0A3E511F075120675FE
:104BA80013007812120C89AC16AD17E5082402FA26
:104BB800E509124AE7120A35850882850983A3A305
:104BC800A3A3A3A3A3A3EEF08E127812120C8974E8
:104BD8001A120A6AE0FCA3E0FDE5082409FAE509CF
:104BE800124AE7120A35E5082428F582E509124D2C
:104BF800A8E510F0050CE5082429F508E5093400B6
:104C0800F509850E82850F83E0F8E50CC3985003FB
:104C1800024B97AA0AAB0B900344024CFB9002AEDE
:104C2800E0A2E54003024CFE9002A6E0A2E14003A8
:104C3800024CFE740C250DF50C7407250CFA124D68
:104C4800037003024CFE124D5AF508EB3400F509C7
:104C5800124D51850882850983E8F0A3E9124D17A2
:104C6800124D95124D10743E124D10A3E50C124DC5
:104C7800247402124D24A37401124D37E514124D09
:104C880037A3E511F0750E06750F00780E120C8922
:104C9800AC16AD17850882850983E02407124AE41B
:104CA800120A35850882850983E0240D124D4CF0DF
:104CB8008E0E780E120C89741A120A6AE0FCA3E0B0
:104CC800FD850882850983E0240E124AE4120A351C
:104CD800A80D850882850983E028F8A3E03400F947
:104CE800E8240EF582E9124DA8E510F0AA0AAB0BEC
:104CF800900342124DB17F10020B487B001204A6AC
:104D08008A0A8B0BEA450B22124D17124D1F22F00F
:104D180085088285098322124D9BA322124D2822E1
:104D2800124D17124D2F22E0124DA0A3A3A3221259
:104D38004D28A3A322124D4122F8A3E03400F9889C
:104D480082898322124D41EE22EA2404F8EB3400D2
:104D5800F922124D5E22124D62228A828B837401DF
:104D6800F0A374FFF0EA2402228A828B83749112E2
:104D78004D7B22F0A3743E124B13A3A3228A828B8D
:104D880083A3A3A3A3E508F0A3E509F022124D9B92
:104D9800740422124D9F22E0F8A3E0F58388822252
:104DA8003400F58322FB900342E0F91204B222C0DA
:104DB80082C0839080D312094E90036012095A0270
:104DC8004EE074EE120A7689088A0A8B0B74121266
:104DD8000A6A780C1209301205428A108B11AE103B
:104DE800AF11EE4F600E8E828F83A3A3780C120949
:104DF8003F024E867A0D7B0012050C8A108B11AE8D
:104E080010AF11EE4F60738E828F83A3A3A3A3A369
:104E1800A3A3A3E508F08E828F83A3A3A3A3A3A3D0
:104E2800E50AF0A3E50BF08E828F83A3A3780C121A
:104E3800093F8E828F83E4F0A3F09080D312094E4D
:104E48008E828F83A3A3A3A3A3A3A3A3A312095A08
:104E580012519D90035E6017E0FAA3E08003E8FA20
:104E6800E9FB8A828B831251A070F38A828B83EECE
:104E7800F0A3EFF0EEFAEFFB80047A007B007F0AE4
:104E8800020B48C082C08390035E80048C828D83AD
:104E9800E0FCA3E0FDEC4D60238C828D83A3A3A3EB
:104EA800A3A3A3E06A7003A3E06B70E08C828D83F8
:104EB800A3A3A3A3A3A3A3A3E06970D0ECFAEDFB7B
:104EC8008016C082C083EA4B600E8A828B83A3A3BC
:104ED800A3A3A3A3E4F0A3F0D083D0820201357486
:104EE800F4120A76740C120A6A7808120930E5A8D6
:104EF800FFC2AF7808120C8512053C7404120A35FB
:104F08008B09A909EFA2E792AFEA4960047900800A
:104F18000279087F04020B4874F2120A76740E12A2
:104F28000A6A7808120930A2AFE433FFC2AF7808E2
:104F3800120C8512053C7404120A35EA4B60128A79
:104F4800828B83A3A3A3A3A3A3A3A3A37808120973
:104F58003FEFA2E092AFEA4B600479008002790843
:104F68007F06020B4874F4120A76A2AFE433F509FF
:104F7800C2AF1205428A0A8B0BAE0AAF0BEE4F6026
:104F880003120548E509A2E092AFEE4F60047900EC
:104F980080027906024F1B74E8120A7674FB120A23
:104FA8001F8A088B098C0A8D0B7401120A6A78080B
:104FB80012093FE5A8F9C2AF90036078081208E229
:104FC800E9A2E792AF12519D700302519390035EDC
:104FD800E0FEA3E0FF75120075130075080075095F
:104FE80000A2AFE433851882851983F0C2AFEE249E
:104FF80002F510EF3400F511EE2402F50AEF340043
:10500800F50B7403120A6A1251A070207402120A76
:105018006AE070187401120A6AE0F8850A82850B42
:1050280083E0C3984006E0C398F080457401120AF3
:105038006AC082C083851082851183780C1209307A
:10504800D083D082780C12076550177401120A6A4F
:10505800780C120930851082851183780C120909A1
:10506800800F9080D312094E851082851183120912
:105078005AEE2404F516EF3400F517850A82850BDD
:10508800831251A070578516828517831251A0701C
:1050980057EE2409F514EF3400F515851482F583CD
:1050A800780C120930E50C450D450E450F60538EFE
:1050B800828F83125208EA4B60488E828F83A3A3A3
:1050C800A3A3A3A3A3A3E0F91204D685148285158C
:1050D8008312094E85108285118312095A850A8226
:1050E800850B831251A0700B851682851783125188
:1050F800A0600F8E828F83A3A3A3A3A3A31251A0A2
:1051080070258E828F83E0F8A3E0F9E512451370CD
:105118000590035E8006851282851383E8F0A3E973
:10512800F08E088F0980048E128F138E828F83E091
:10513800FEA3E0FF851882851983E0A2E092AFE51F
:10514800084509603F850882850983A3A31251A0F9
:10515800702B850882850983A3A3A3A31251A0708D
:105168001C8508828509831252088508828509836F
:10517800A3A3A3A3A3A3A3A3E0F91204D6AA08ABED
:1051880009120512EE4F6003024FE37405120A3547
:105198007F10020B4890035EE0F8A3E0F9E849228B
:1051A80074F0120A7612519D604190035E12520EFD
:1051B8009080D778081209308A828B83A3A3780C51
:1051C8001209307808790C120755500C850C08859F
:1051D8000D09850E0A850F0B8A828B83E0F8A3E000
:1051E800F9E8FAE9FBEA4B600A80CD9080D37808A9
:1051F800120930AA08AB09AC0AAD0B7F08020B48AC
:10520800A3A3A3A3A3A3E0FAA3E0FB22C082C083C5
:1052180090036012094E024EE0C082C0837A007982
:105228000F12065C43FE0143FE0243FE100255C600
:1052380074F5120A7689088A0AEA602F14602C1419
:10524800600A24FE601B24FC6021800B7CE87D033F
:105258007B057A01120662900396E0F97F03020B40
:10526800487CE87D037B057A3280E975090153089B
:105278000F7E997F03801DE06401F0E0FAA909120E
:10528800066EE5096208E509C333F509EE2409FE4F
:10529800EF3400FFE50860BF550960EA7408650A45
:1052A8008E828F8360D1E50A80D074F2120A7689E3
:1052B8000A8A0B8B0CECFEEDFFE97003025383EBBB
:1052C8007003025383EE4F7003025383EBC394645D
:1052D800400302537F750D01530A0F75089975092C
:1052E800038076550D605E850882850983E0C39446
:1052F80002500D900396E0550DF8900398E048F0A1
:10530800850882850983E4F0A3A3A3EEF0A3EF1236
:10531800538DA3E50C12538DE50BF07009850882B7
:105328008509837404F012056C850882850983A3B6
:10533800A3A3A3A312095A850882850983E0D2E1B1
:10534800F0E50D620AE50DC333F50DE5082409F80B
:10535800E5093400F988088909E50A70867A207B0E
:105368000090038EE0F912055A7A207B0090038E94
:10537800E0F91204D680097A0180027A0012065CEC
:105388007F06020B48F0850882850983A32274E80A
:10539800120A7674FF120A1F751400751500751627
:1053A8000175170F7E997F039003BDE060030255D6
:1053B80063E5175516700302552D8E828F83E0A280
:1053C800E1400302552912056C8A0C8B0D8C0E8D59
:1053D8000F8E828F83A3A3A3A3A378081209307822
:1053E80008790C12075550030254FF8E828F83A34D
:1053F8008582088583098E828F83E0A2E05032A3DC
:10540800A3E0F87464C398851882851983F08E82A6
:105418008F83E0C2E0F07A00A91612066E8E828FA2
:1054280083E0A2E2403E850882850983E014F0808B
:1054380033850882850983E0700D8E828F83E0A210
:10544800E24004640280E78E828F83A3A3E085187C
:1054580082851983F08E828F83E0D2E0F07A01A9E9
:105468001612066E8E828F83E0A2E150658518823F
:10547800851983E0F508E4F509F50AF50B8E828FA6
:1054880083A3A3A3E0F510A3E0F511E4F512F51347
:10549800780879101207949080DB78101209307818
:1054A800087910120814850810850911E4F512F519
:1054B80013780C79101208BC8E828F83A3A3A3A340
:1054C800A3E50CF0A3E50DF0A3E50EF0A3E50FF0BE
:1054D8008032750800750900900398E0551660043D
:1054E8007A0180027A00A91612065C74FF6516F824
:1054F800900398E05880D8E508C3950CF508E509AD
:10550800950DF509E51445156011E5084509601183
:10551800C3E5089514E5099515500685081485090D
:1055280015E5166217E516C333F516EE2409FEEFE6
:105538003400FFE51760030253B9E5144515601BF5
:10554800E4F516F5177814120C857A207B00900381
:105558008EE0F912054E7404120A357401120A35E8
:105568007F10020B48C082C083E9A2E0500B74018F
:105578006A7004D2908002C290E9A2E1500B7401D3
:105588006A7004D2918002C291E9A2E2500B7401C0
:105598006A7004D2948002C294E9A2E3500B7401A9
:1055A8006A7004D2908005C290EA6007900396E082
:1055B80049800974FF69F8900396E05880049003C5
:1055C800BDE4F0D083D082020135C082C08390034D
:1055D800BD7401F0E590FBE590F8E590F9E590FAE7
:1055E800E8A2E15004D2F08002C2F0E9A2E450043B
:1055F800D2F18002C2F1EAA2E0E433333333FAA2F3
:10560800F1E4333333F9A2F0E43333F8EBA2E0E406
:105618003348494A900397F07A00790F12066E8052
:10562800A2C082C0837A01900397E0F912066E1235
:1056380006680255C6A2AFE433F8C2AF5394FEE53C
:1056480094A2E240FAE8A2E092AF75A70075A10023
:10565800759CFF75C30075A20075A30075A400753D
:10566800A50075A60075C31175A20075A30075A4E1
:105678000075A50075A60075C33375A20075A30053
:1056880075A40075A50075A60075C34475A20075BC
:10569800A30075A40075A50075A60075C32275A2A0
:1056A8002075A34E75A40075A50075A6007594080D
:1056B800A2AFE433F8C2AF439401E594A2E250FAF2
:1056C800E8A2E092AF439402020135A2AFE433F8B6
:1056D800C2AF5394FEE594A2E240FAE8A2E0025871
:1056E800F4A2AFE433F8C2AF439401E594A2E250C8
:1056F800FA80E8E8A2E792AF025755E5A485188238
:10570800851983F0E5A5C0E07401120A6AD0E0F0BB
:10571800E5A6C0E07402120A6AD0E0F07403120A27
:105728006AE4F0E8A2E792AF851882851983120926
:105738004E7404120A35D083D082020135E8A2E7FC
:1057480092AF851882851983E0FAA3E0FB74028082
:10575800E2F59CE8A2E792AF025739C082C0837491
:10576800FC120A1F851882851983EAF0A3EBF0A3BF
:10577800ECF0A3EDF0E5A8F8C2AF53A7BF75C333AB
:10578800851882851983E0F5A47401120A6AE0F588
:10579800A57402120A6AE0F5A67404120A6AE0F512
:1057A800A27405120A6AE0F5A375A1BF43A7408059
:1057B800A2C082C08374FE120A1F851882851983CD
:1057C800EAF0A3EBF0E5A8F8C2AF53A7FD75A1FD79
:1057D80075C303851882851983E0F5A27401120A3E
:1057E8006AE0F5A3E59C54F04401F59C0256FBC021
:1057F80082C08374FC120A1F851882851983EAF017
:10580800A3EBF0A3ECF0A3EDF0E5A8F8C2AF53A723
:10581800BF75A1BF439C0F75C33385188285198353
:10582800E0F5A47401120A6AE0F5A57402120A6A86
:10583800E0F5A67404120A6AE0F5A27405120A6A71
:10584800E0F5A3E59C54F0440802575974F4120A91
:105858007674FC120A1F851882851983EAF0A3EB77
:10586800F0A3ECF0A3EDF0A2AFE433F9C2AF53A775
:10587800DF75A1DF851882851983C082C083908176
:10588800077808120930D083D08278081207407050
:1058980005439CF0802475C340851882851983E0F0
:1058A800F5A47401120A6AE0F5A57402120A6AE006
:1058B800F5A6E59C540F4450F59CE9A2E092AF741C
:1058C80004120A357F04020B48E5A8C2AF53A709A2
:1058D8008015E5A8C2AF53A709759CFF8009E5A804
:1058E800C2AF439C0F800375A109A2E792AF0201E2
:1058F80035A3A3A3E4F0E8A2E792AF02573EC08223
:10590800C08374FC120A1FE5A8F8C2AF75C300E58E
:10591800A2025703C082C083E5A8F8C2AF75C300CE
:10592800E5A28A828B83A3A3A3A3F0E5958C828D3D
:1059380083F0E5A38A828B83A3A3A3A3A3F0E5A4A2
:105948008A828B83F0E5A5A3F0E5A68A828B83A3E0
:10595800A3F08A828B83A3A3A3E4F0E5968C828DBF
:1059680083A3F0E5978C828D83A3A3F08C828D832B
:105978000258F9C082C08374FE120A1FE5A8F8C253
:10598800AFE5C3F975C300E5A2E5A48518828519BA
:1059980083F0E5A5C0E07401120A6AD0E0F089C37B
:1059A80002574574F7120A7674FF120A1FE9900429
:1059B8000AF08518828519837408F0AC82AD837962
:1059C800017A017B041206A47CA07D0F7A027B0079
:1059D8001202007CA07D0F7A037B00120200900463
:1059E8000AE0F912057E7A00790312065C7A017BD7
:1059F8000090040AE0F91204D67401120A357F01F6
:105A0800020B4874F4120A768A088B09EB548060FA
:105A18004190040AE0F91204BE8A0A8B0BA80AA96D
:105A28000BE8FEE9FFE84960208E828F83E064C0BE
:105A38007010A3A3A3E0FA8E828F83A3A3E0F912C8
:105A48000716EEFAEFFB1204ACAA08E5096480FB1E
:105A58008019EAA2E050107A0B7B8112069EE508B5
:105A68006401FAAB0980047A007B007F04020B48CA
:105A780074F6120A76EAFFA2E0502E90044DE07008
:105A8800257401F090040BE4F079017A237B8012ED
:105A9800061479027A227B811206147B007A007937
:105AA800031206AA80031206B0EFA2E35051900435
:105AB8004DE0704B90040BE0604590040CE004F05E
:105AC80090040BE0F890040CE0C3984002E4F075F1
:105AD80008017808120C8D790A90040CE02401FC66
:105AE800E43400FD7A8E7B8012061A7401120A359E
:105AF80090040C125C6E120A0C125C59125C647FE2
:105B080002020B4874F4120A76EA2404F8EB340013
:105B1800F9E8FCE9FDEA2403F508EB3400F5098A05
:105B2800828B83A3A3E0600D147003025BEC24F462
